{
  "_format": "hh-sol-artifact-1",
  "contractName": "DriverPayment",
  "sourceName": "contracts/DriverPayment.sol",
  "abi": [
    {
      "inputs": [
        {
          "internalType": "address",
          "name": "_usdcToken",
          "type": "address"
        }
      ],
      "stateMutability": "nonpayable",
      "type": "constructor"
    },
    {
      "anonymous": false,
      "inputs": [
        {
          "indexed": true,
          "internalType": "address",
          "name": "previousOwner",
          "type": "address"
        },
        {
          "indexed": true,
          "internalType": "address",
          "name": "newOwner",
          "type": "address"
        }
      ],
      "name": "OwnershipTransferred",
      "type": "event"
    },
    {
      "inputs": [
        {
          "internalType": "string",
          "name": "_plate",
          "type": "string"
        }
      ],
      "name": "createEntry",
      "outputs": [],
      "stateMutability": "nonpayable",
      "type": "function"
    },
    {
      "inputs": [],
      "name": "createStation",
      "outputs": [],
      "stateMutability": "nonpayable",
      "type": "function"
    },
    {
      "inputs": [
        {
          "internalType": "string",
          "name": "_plate",
          "type": "string"
        }
      ],
      "name": "deleteEntry",
      "outputs": [],
      "stateMutability": "nonpayable",
      "type": "function"
    },
    {
      "inputs": [
        {
          "internalType": "address",
          "name": "station",
          "type": "address"
        }
      ],
      "name": "deleteStation",
      "outputs": [],
      "stateMutability": "nonpayable",
      "type": "function"
    },
    {
      "inputs": [
        {
          "internalType": "uint256",
          "name": "amount",
          "type": "uint256"
        },
        {
          "internalType": "address",
          "name": "token",
          "type": "address"
        }
      ],
      "name": "deposit",
      "outputs": [],
      "stateMutability": "payable",
      "type": "function"
    },
    {
      "inputs": [
        {
          "internalType": "uint256",
          "name": "amount",
          "type": "uint256"
        }
      ],
      "name": "depositUSDC",
      "outputs": [],
      "stateMutability": "payable",
      "type": "function"
    },
    {
      "inputs": [
        {
          "internalType": "address",
          "name": "",
          "type": "address"
        }
      ],
      "name": "driverBalances",
      "outputs": [
        {
          "internalType": "uint256",
          "name": "",
          "type": "uint256"
        }
      ],
      "stateMutability": "view",
      "type": "function"
    },
    {
      "inputs": [
        {
          "internalType": "address",
          "name": "",
          "type": "address"
        },
        {
          "internalType": "address",
          "name": "",
          "type": "address"
        }
      ],
      "name": "driverDepositedToken",
      "outputs": [
        {
          "internalType": "uint256",
          "name": "",
          "type": "uint256"
        }
      ],
      "stateMutability": "view",
      "type": "function"
    },
    {
      "inputs": [
        {
          "internalType": "address",
          "name": "_driver",
          "type": "address"
        }
      ],
      "name": "getDriverBalance",
      "outputs": [
        {
          "internalType": "uint256",
          "name": "",
          "type": "uint256"
        }
      ],
      "stateMutability": "nonpayable",
      "type": "function"
    },
    {
      "inputs": [],
      "name": "interestRate",
      "outputs": [
        {
          "internalType": "uint256",
          "name": "",
          "type": "uint256"
        }
      ],
      "stateMutability": "view",
      "type": "function"
    },
    {
      "inputs": [],
      "name": "owner",
      "outputs": [
        {
          "internalType": "address",
          "name": "",
          "type": "address"
        }
      ],
      "stateMutability": "view",
      "type": "function"
    },
    {
      "inputs": [
        {
          "internalType": "string",
          "name": "_plate",
          "type": "string"
        },
        {
          "internalType": "address",
          "name": "_station",
          "type": "address"
        },
        {
          "internalType": "uint256",
          "name": "_amount",
          "type": "uint256"
        }
      ],
      "name": "pay",
      "outputs": [],
      "stateMutability": "nonpayable",
      "type": "function"
    },
    {
      "inputs": [],
      "name": "payInterestPeriod",
      "outputs": [
        {
          "internalType": "uint256",
          "name": "",
          "type": "uint256"
        }
      ],
      "stateMutability": "view",
      "type": "function"
    },
    {
      "inputs": [
        {
          "internalType": "uint256",
          "name": "amount",
          "type": "uint256"
        },
        {
          "internalType": "address",
          "name": "token",
          "type": "address"
        },
        {
          "internalType": "address",
          "name": "user",
          "type": "address"
        }
      ],
      "name": "registerUSDCForUser",
      "outputs": [],
      "stateMutability": "nonpayable",
      "type": "function"
    },
    {
      "inputs": [],
      "name": "renounceOwnership",
      "outputs": [],
      "stateMutability": "nonpayable",
      "type": "function"
    },
    {
      "inputs": [],
      "name": "rewardRate",
      "outputs": [
        {
          "internalType": "uint256",
          "name": "",
          "type": "uint256"
        }
      ],
      "stateMutability": "view",
      "type": "function"
    },
    {
      "inputs": [],
      "name": "serviceFeeRate",
      "outputs": [
        {
          "internalType": "uint256",
          "name": "",
          "type": "uint256"
        }
      ],
      "stateMutability": "view",
      "type": "function"
    },
    {
      "inputs": [
        {
          "internalType": "address",
          "name": "",
          "type": "address"
        }
      ],
      "name": "stationBalances",
      "outputs": [
        {
          "internalType": "uint256",
          "name": "",
          "type": "uint256"
        }
      ],
      "stateMutability": "view",
      "type": "function"
    },
    {
      "inputs": [
        {
          "internalType": "uint256",
          "name": "amount",
          "type": "uint256"
        }
      ],
      "name": "stationWithdrawUSDC",
      "outputs": [],
      "stateMutability": "payable",
      "type": "function"
    },
    {
      "inputs": [
        {
          "internalType": "address",
          "name": "",
          "type": "address"
        }
      ],
      "name": "timestamps",
      "outputs": [
        {
          "internalType": "uint256",
          "name": "",
          "type": "uint256"
        }
      ],
      "stateMutability": "view",
      "type": "function"
    },
    {
      "inputs": [
        {
          "internalType": "address",
          "name": "newOwner",
          "type": "address"
        }
      ],
      "name": "transferOwnership",
      "outputs": [],
      "stateMutability": "nonpayable",
      "type": "function"
    },
    {
      "inputs": [],
      "name": "usdcToken",
      "outputs": [
        {
          "internalType": "address",
          "name": "",
          "type": "address"
        }
      ],
      "stateMutability": "view",
      "type": "function"
    },
    {
      "inputs": [
        {
          "internalType": "string",
          "name": "_plate",
          "type": "string"
        }
      ],
      "name": "viewEntry",
      "outputs": [
        {
          "internalType": "address",
          "name": "",
          "type": "address"
        }
      ],
      "stateMutability": "view",
      "type": "function"
    },
    {
      "inputs": [
        {
          "internalType": "address",
          "name": "station",
          "type": "address"
        }
      ],
      "name": "viewStationBalance",
      "outputs": [
        {
          "internalType": "uint256",
          "name": "",
          "type": "uint256"
        }
      ],
      "stateMutability": "view",
      "type": "function"
    }
  ],
  "bytecode": "0x6080604052670de0b6b3a76400006002556706f05b59d3b200006003556702c68af0bb14000060045562278d006005553480156200003c57600080fd5b506040516200265438038062002654833981810160405281019062000062919062000361565b6200008262000076620000db60201b60201c565b620000e360201b60201c565b6200009333620001a760201b60201c565b80600160006101000a81548173ffffffffffffffffffffffffffffffffffffffff021916908373ffffffffffffffffffffffffffffffffffffffff16021790555050620004ae565b600033905090565b60008060009054906101000a900473ffffffffffffffffffffffffffffffffffffffff169050816000806101000a81548173ffffffffffffffffffffffffffffffffffffffff021916908373ffffffffffffffffffffffffffffffffffffffff1602179055508173ffffffffffffffffffffffffffffffffffffffff168173ffffffffffffffffffffffffffffffffffffffff167f8be0079c531659141344cd1fd0a4f28419497f9722a3daafe3b4186f6b6457e060405160405180910390a35050565b620001b76200023d60201b60201c565b600073ffffffffffffffffffffffffffffffffffffffff168173ffffffffffffffffffffffffffffffffffffffff160362000229576040517f08c379a000000000000000000000000000000000000000000000000000000000815260040162000220906200041a565b60405180910390fd5b6200023a81620000e360201b60201c565b50565b6200024d620000db60201b60201c565b73ffffffffffffffffffffffffffffffffffffffff1662000273620002ce60201b60201c565b73ffffffffffffffffffffffffffffffffffffffff1614620002cc576040517f08c379a0000000000000000000000000000000000000000000000000000000008152600401620002c3906200048c565b60405180910390fd5b565b60008060009054906101000a900473ffffffffffffffffffffffffffffffffffffffff16905090565b600080fd5b600073ffffffffffffffffffffffffffffffffffffffff82169050919050565b60006200032982620002fc565b9050919050565b6200033b816200031c565b81146200034757600080fd5b50565b6000815190506200035b8162000330565b92915050565b6000602082840312156200037a5762000379620002f7565b5b60006200038a848285016200034a565b91505092915050565b600082825260208201905092915050565b7f4f776e61626c653a206e6577206f776e657220697320746865207a65726f206160008201527f6464726573730000000000000000000000000000000000000000000000000000602082015250565b60006200040260268362000393565b91506200040f82620003a4565b604082019050919050565b600060208201905081810360008301526200043581620003f3565b9050919050565b7f4f776e61626c653a2063616c6c6572206973206e6f7420746865206f776e6572600082015250565b60006200047460208362000393565b915062000481826200043c565b602082019050919050565b60006020820190508181036000830152620004a78162000465565b9050919050565b61219680620004be6000396000f3fe60806040526004361061014b5760003560e01c806374ce6ee0116100b6578063bec9a4691161006f578063bec9a46914610471578063c53735a31461049a578063d68f0ec9146104d7578063e9c98e68146104f3578063f2fde38b14610530578063f688bcfb146105595761014b565b806374ce6ee0146103615780637b0a47ee1461038a5780637c3a00fd146103b55780638da5cb5b146103e0578063a0d328021461040b578063b4ee0be5146104345761014b565b80633cc9dacb116101085780633cc9dacb1461024c5780635425c37f1461028957806361d1bc94146102c6578063666255cb146102f15780636e553f651461032e578063715018a61461034a5761014b565b80630a90e179146101505780630fa5083f1461017957806311eac855146101b657806317674544146101e15780631a20db7a1461020a57806322642f7514610235575b600080fd5b34801561015c57600080fd5b50610177600480360381019061017291906118f0565b610575565b005b34801561018557600080fd5b506101a0600480360381019061019b919061195f565b61070d565b6040516101ad919061199b565b60405180910390f35b3480156101c257600080fd5b506101cb610725565b6040516101d891906119c5565b60405180910390f35b3480156101ed57600080fd5b50610208600480360381019061020391906119e0565b61074b565b005b34801561021657600080fd5b5061021f6107b8565b60405161022c919061199b565b60405180910390f35b34801561024157600080fd5b5061024a6107be565b005b34801561025857600080fd5b50610273600480360381019061026e9190611a29565b610805565b604051610280919061199b565b60405180910390f35b34801561029557600080fd5b506102b060048036038101906102ab919061195f565b61082a565b6040516102bd919061199b565b60405180910390f35b3480156102d257600080fd5b506102db610873565b6040516102e8919061199b565b60405180910390f35b3480156102fd57600080fd5b506103186004803603810190610313919061195f565b610879565b604051610325919061199b565b60405180910390f35b61034860048036038101906103439190611a69565b610990565b005b34801561035657600080fd5b5061035f610aa8565b005b34801561036d57600080fd5b5061038860048036038101906103839190611aa9565b610abc565b005b34801561039657600080fd5b5061039f610b99565b6040516103ac919061199b565b60405180910390f35b3480156103c157600080fd5b506103ca610b9f565b6040516103d7919061199b565b60405180910390f35b3480156103ec57600080fd5b506103f5610ba5565b60405161040291906119c5565b60405180910390f35b34801561041757600080fd5b50610432600480360381019061042d919061195f565b610bce565b005b34801561044057600080fd5b5061045b600480360381019061045691906119e0565b610c14565b60405161046891906119c5565b60405180910390f35b34801561047d57600080fd5b50610498600480360381019061049391906119e0565b610c85565b005b3480156104a657600080fd5b506104c160048036038101906104bc919061195f565b610d06565b6040516104ce919061199b565b60405180910390f35b6104f160048036038101906104ec9190611afc565b610d1e565b005b3480156104ff57600080fd5b5061051a6004803603810190610515919061195f565b610e46565b604051610527919061199b565b60405180910390f35b34801561053c57600080fd5b506105576004803603810190610552919061195f565b610e5e565b005b610573600480360381019061056e9190611afc565b610ee1565b005b61057d611021565b600061058884610c14565b90506105938161109f565b81600760008373ffffffffffffffffffffffffffffffffffffffff1673ffffffffffffffffffffffffffffffffffffffff1681526020019081526020016000205410156105df57600080fd5b81600760008373ffffffffffffffffffffffffffffffffffffffff1673ffffffffffffffffffffffffffffffffffffffff168152602001908152602001600020600082825461062e9190611b58565b9250508190555081600660008573ffffffffffffffffffffffffffffffffffffffff1673ffffffffffffffffffffffffffffffffffffffff16815260200190815260200160002060008282546106849190611b8c565b925050819055506000678ac7230489e80000600354846106a49190611bc0565b6106ae9190611c31565b905080600760008473ffffffffffffffffffffffffffffffffffffffff1673ffffffffffffffffffffffffffffffffffffffff16815260200190815260200160002060008282546106ff9190611b8c565b925050819055505050505050565b60066020528060005260406000206000915090505481565b600160009054906101000a900473ffffffffffffffffffffffffffffffffffffffff1681565b610753611021565b6000816040516020016107669190611cd3565b6040516020818303038152906040528051906020012090506008600082815260200190815260200160002060006101000a81549073ffffffffffffffffffffffffffffffffffffffff02191690555050565b60055481565b6000600660003373ffffffffffffffffffffffffffffffffffffffff1673ffffffffffffffffffffffffffffffffffffffff16815260200190815260200160002081905550565b600a602052816000526040600020602052806000526040600020600091509150505481565b6000600660008373ffffffffffffffffffffffffffffffffffffffff1673ffffffffffffffffffffffffffffffffffffffff168152602001908152602001600020549050919050565b60045481565b6000610883611021565b6108c26040518060400160405280601381526020017f626c6f636b2e74696d657374616d703a202573000000000000000000000000008152504261111b565b6108cb8261109f565b6109496040518060400160405280601b81526020017f64726976657242616c616e6365735b5f6472697665725d3a2025730000000000815250600760008573ffffffffffffffffffffffffffffffffffffffff1673ffffffffffffffffffffffffffffffffffffffff1681526020019081526020016000205461111b565b600760008373ffffffffffffffffffffffffffffffffffffffff1673ffffffffffffffffffffffffffffffffffffffff168152602001908152602001600020549050919050565b8073ffffffffffffffffffffffffffffffffffffffff166323b872dd3330856040518463ffffffff1660e01b81526004016109cd93929190611cea565b6020604051808303816000875af11580156109ec573d6000803e3d6000fd5b505050506040513d601f19601f82011682018060405250810190610a109190611d59565b5081600a60003373ffffffffffffffffffffffffffffffffffffffff1673ffffffffffffffffffffffffffffffffffffffff16815260200190815260200160002060008373ffffffffffffffffffffffffffffffffffffffff1673ffffffffffffffffffffffffffffffffffffffff1681526020019081526020016000206000828254610a9d9190611b8c565b925050819055505050565b610ab0611021565b610aba60006111b7565b565b6000600a60008373ffffffffffffffffffffffffffffffffffffffff1673ffffffffffffffffffffffffffffffffffffffff16815260200190815260200160002060008473ffffffffffffffffffffffffffffffffffffffff1673ffffffffffffffffffffffffffffffffffffffff1681526020019081526020016000208190555082600760008373ffffffffffffffffffffffffffffffffffffffff1673ffffffffffffffffffffffffffffffffffffffff1681526020019081526020016000206000828254610b8d9190611b8c565b92505081905550505050565b60035481565b60025481565b60008060009054906101000a900473ffffffffffffffffffffffffffffffffffffffff16905090565b600660008273ffffffffffffffffffffffffffffffffffffffff1673ffffffffffffffffffffffffffffffffffffffff1681526020019081526020016000206000905550565b6000610c1e611021565b600082604051602001610c319190611cd3565b6040516020818303038152906040528051906020012090506008600082815260200190815260200160002060009054906101000a900473ffffffffffffffffffffffffffffffffffffffff16915050919050565b600081604051602001610c989190611cd3565b604051602081830303815290604052805190602001209050336008600083815260200190815260200160002060006101000a81548173ffffffffffffffffffffffffffffffffffffffff021916908373ffffffffffffffffffffffffffffffffffffffff1602179055505050565b60076020528060005260406000206000915090505481565b80600660003373ffffffffffffffffffffffffffffffffffffffff1673ffffffffffffffffffffffffffffffffffffffff168152602001908152602001600020541015610d6a57600080fd5b80600660003373ffffffffffffffffffffffffffffffffffffffff1673ffffffffffffffffffffffffffffffffffffffff1681526020019081526020016000206000828254610db99190611b58565b92505081905550678ac7230489e80000600454678ac7230489e80000610ddf9190611b58565b610de99190611c31565b81610df49190611bc0565b9050610e433382600160009054906101000a900473ffffffffffffffffffffffffffffffffffffffff1673ffffffffffffffffffffffffffffffffffffffff1661127b9092919063ffffffff16565b50565b60096020528060005260406000206000915090505481565b610e66611021565b600073ffffffffffffffffffffffffffffffffffffffff168173ffffffffffffffffffffffffffffffffffffffff1603610ed5576040517f08c379a0000000000000000000000000000000000000000000000000000000008152600401610ecc90611e09565b60405180910390fd5b610ede816111b7565b50565b80600760003373ffffffffffffffffffffffffffffffffffffffff1673ffffffffffffffffffffffffffffffffffffffff1681526020019081526020016000206000828254610f309190611b8c565b92505081905550600160009054906101000a900473ffffffffffffffffffffffffffffffffffffffff1673ffffffffffffffffffffffffffffffffffffffff166323b872dd3330846040518463ffffffff1660e01b8152600401610f9693929190611cea565b6020604051808303816000875af1158015610fb5573d6000803e3d6000fd5b505050506040513d601f19601f82011682018060405250810190610fd99190611d59565b5042600960003373ffffffffffffffffffffffffffffffffffffffff1673ffffffffffffffffffffffffffffffffffffffff1681526020019081526020016000208190555050565b611029611301565b73ffffffffffffffffffffffffffffffffffffffff16611047610ba5565b73ffffffffffffffffffffffffffffffffffffffff161461109d576040517f08c379a000000000000000000000000000000000000000000000000000000000815260040161109490611e75565b60405180910390fd5b565b6110a7611021565b6000600554600960008473ffffffffffffffffffffffffffffffffffffffff1673ffffffffffffffffffffffffffffffffffffffff16815260200190815260200160002054426110f79190611b58565b6111019190611c31565b90506000811115611117576111168282611309565b5b5050565b6111b38282604051602401611131929190611ece565b6040516020818303038152906040527fb60e72cc000000000000000000000000000000000000000000000000000000007bffffffffffffffffffffffffffffffffffffffffffffffffffffffff19166020820180517bffffffffffffffffffffffffffffffffffffffffffffffffffffffff8381831617835250505050611445565b5050565b60008060009054906101000a900473ffffffffffffffffffffffffffffffffffffffff169050816000806101000a81548173ffffffffffffffffffffffffffffffffffffffff021916908373ffffffffffffffffffffffffffffffffffffffff1602179055508173ffffffffffffffffffffffffffffffffffffffff168173ffffffffffffffffffffffffffffffffffffffff167f8be0079c531659141344cd1fd0a4f28419497f9722a3daafe3b4186f6b6457e060405160405180910390a35050565b6112fc8363a9059cbb60e01b848460405160240161129a929190611efe565b604051602081830303815290604052907bffffffffffffffffffffffffffffffffffffffffffffffffffffffff19166020820180517bffffffffffffffffffffffffffffffffffffffffffffffffffffffff838183161783525050505061146e565b505050565b600033905090565b611311611021565b60008190505b60008111156113fc57678ac7230489e800006002546113369190611b8c565b600760008573ffffffffffffffffffffffffffffffffffffffff1673ffffffffffffffffffffffffffffffffffffffff16815260200190815260200160002060008282546113849190611bc0565b92505081905550678ac7230489e80000600760008573ffffffffffffffffffffffffffffffffffffffff1673ffffffffffffffffffffffffffffffffffffffff16815260200190815260200160002060008282546113e29190611c31565b9250508190555080806113f490611f27565b915050611317565b5042600960008473ffffffffffffffffffffffffffffffffffffffff1673ffffffffffffffffffffffffffffffffffffffff168152602001908152602001600020819055505050565b60008151905060006a636f6e736f6c652e6c6f679050602083016000808483855afa5050505050565b60006114d0826040518060400160405280602081526020017f5361666545524332303a206c6f772d6c6576656c2063616c6c206661696c65648152508573ffffffffffffffffffffffffffffffffffffffff166115359092919063ffffffff16565b905060008151111561153057808060200190518101906114f09190611d59565b61152f576040517f08c379a000000000000000000000000000000000000000000000000000000000815260040161152690611fc2565b60405180910390fd5b5b505050565b6060611544848460008561154d565b90509392505050565b606082471015611592576040517f08c379a000000000000000000000000000000000000000000000000000000000815260040161158990612054565b60405180910390fd5b6000808673ffffffffffffffffffffffffffffffffffffffff1685876040516115bb91906120bb565b60006040518083038185875af1925050503d80600081146115f8576040519150601f19603f3d011682016040523d82523d6000602084013e6115fd565b606091505b509150915061160e8783838761161a565b92505050949350505050565b6060831561167c576000835103611674576116348561168f565b611673576040517f08c379a000000000000000000000000000000000000000000000000000000000815260040161166a9061211e565b60405180910390fd5b5b829050611687565b61168683836116b2565b5b949350505050565b6000808273ffffffffffffffffffffffffffffffffffffffff163b119050919050565b6000825111156116c55781518083602001fd5b806040517f08c379a00000000000000000000000000000000000000000000000000000000081526004016116f9919061213e565b60405180910390fd5b6000604051905090565b600080fd5b600080fd5b600080fd5b600080fd5b6000601f19601f8301169050919050565b7f4e487b7100000000000000000000000000000000000000000000000000000000600052604160045260246000fd5b61176982611720565b810181811067ffffffffffffffff8211171561178857611787611731565b5b80604052505050565b600061179b611702565b90506117a78282611760565b919050565b600067ffffffffffffffff8211156117c7576117c6611731565b5b6117d082611720565b9050602081019050919050565b82818337600083830152505050565b60006117ff6117fa846117ac565b611791565b90508281526020810184848401111561181b5761181a61171b565b5b6118268482856117dd565b509392505050565b600082601f83011261184357611842611716565b5b81356118538482602086016117ec565b91505092915050565b600073ffffffffffffffffffffffffffffffffffffffff82169050919050565b60006118878261185c565b9050919050565b6118978161187c565b81146118a257600080fd5b50565b6000813590506118b48161188e565b92915050565b6000819050919050565b6118cd816118ba565b81146118d857600080fd5b50565b6000813590506118ea816118c4565b92915050565b6000806000606084860312156119095761190861170c565b5b600084013567ffffffffffffffff81111561192757611926611711565b5b6119338682870161182e565b9350506020611944868287016118a5565b9250506040611955868287016118db565b9150509250925092565b6000602082840312156119755761197461170c565b5b6000611983848285016118a5565b91505092915050565b611995816118ba565b82525050565b60006020820190506119b0600083018461198c565b92915050565b6119bf8161187c565b82525050565b60006020820190506119da60008301846119b6565b92915050565b6000602082840312156119f6576119f561170c565b5b600082013567ffffffffffffffff811115611a1457611a13611711565b5b611a208482850161182e565b91505092915050565b60008060408385031215611a4057611a3f61170c565b5b6000611a4e858286016118a5565b9250506020611a5f858286016118a5565b9150509250929050565b60008060408385031215611a8057611a7f61170c565b5b6000611a8e858286016118db565b9250506020611a9f858286016118a5565b9150509250929050565b600080600060608486031215611ac257611ac161170c565b5b6000611ad0868287016118db565b9350506020611ae1868287016118a5565b9250506040611af2868287016118a5565b9150509250925092565b600060208284031215611b1257611b1161170c565b5b6000611b20848285016118db565b91505092915050565b7f4e487b7100000000000000000000000000000000000000000000000000000000600052601160045260246000fd5b6000611b63826118ba565b9150611b6e836118ba565b9250828203905081811115611b8657611b85611b29565b5b92915050565b6000611b97826118ba565b9150611ba2836118ba565b9250828201905080821115611bba57611bb9611b29565b5b92915050565b6000611bcb826118ba565b9150611bd6836118ba565b9250828202611be4816118ba565b91508282048414831517611bfb57611bfa611b29565b5b5092915050565b7f4e487b7100000000000000000000000000000000000000000000000000000000600052601260045260246000fd5b6000611c3c826118ba565b9150611c47836118ba565b925082611c5757611c56611c02565b5b828204905092915050565b600081519050919050565b600081905092915050565b60005b83811015611c96578082015181840152602081019050611c7b565b60008484015250505050565b6000611cad82611c62565b611cb78185611c6d565b9350611cc7818560208601611c78565b80840191505092915050565b6000611cdf8284611ca2565b915081905092915050565b6000606082019050611cff60008301866119b6565b611d0c60208301856119b6565b611d19604083018461198c565b949350505050565b60008115159050919050565b611d3681611d21565b8114611d4157600080fd5b50565b600081519050611d5381611d2d565b92915050565b600060208284031215611d6f57611d6e61170c565b5b6000611d7d84828501611d44565b91505092915050565b600082825260208201905092915050565b7f4f776e61626c653a206e6577206f776e657220697320746865207a65726f206160008201527f6464726573730000000000000000000000000000000000000000000000000000602082015250565b6000611df3602683611d86565b9150611dfe82611d97565b604082019050919050565b60006020820190508181036000830152611e2281611de6565b9050919050565b7f4f776e61626c653a2063616c6c6572206973206e6f7420746865206f776e6572600082015250565b6000611e5f602083611d86565b9150611e6a82611e29565b602082019050919050565b60006020820190508181036000830152611e8e81611e52565b9050919050565b6000611ea082611c62565b611eaa8185611d86565b9350611eba818560208601611c78565b611ec381611720565b840191505092915050565b60006040820190508181036000830152611ee88185611e95565b9050611ef7602083018461198c565b9392505050565b6000604082019050611f1360008301856119b6565b611f20602083018461198c565b9392505050565b6000611f32826118ba565b915060008203611f4557611f44611b29565b5b600182039050919050565b7f5361666545524332303a204552433230206f7065726174696f6e20646964206e60008201527f6f74207375636365656400000000000000000000000000000000000000000000602082015250565b6000611fac602a83611d86565b9150611fb782611f50565b604082019050919050565b60006020820190508181036000830152611fdb81611f9f565b9050919050565b7f416464726573733a20696e73756666696369656e742062616c616e636520666f60008201527f722063616c6c0000000000000000000000000000000000000000000000000000602082015250565b600061203e602683611d86565b915061204982611fe2565b604082019050919050565b6000602082019050818103600083015261206d81612031565b9050919050565b600081519050919050565b600081905092915050565b600061209582612074565b61209f818561207f565b93506120af818560208601611c78565b80840191505092915050565b60006120c7828461208a565b915081905092915050565b7f416464726573733a2063616c6c20746f206e6f6e2d636f6e7472616374000000600082015250565b6000612108601d83611d86565b9150612113826120d2565b602082019050919050565b60006020820190508181036000830152612137816120fb565b9050919050565b600060208201905081810360008301526121588184611e95565b90509291505056fea264697066735822122036587e84c60150083f9af03be51e40d1bff8690017fb0191b34412b45707ef9464736f6c63430008120033",
  "linkReferences": {},
  "deployedLinkReferences": {}
}