{
  "_format": "hh-sol-artifact-1",
  "contractName": "Fun",
  "sourceName": "contracts/Fun.sol",
  "abi": [
    {
      "inputs": [],
      "name": "forFun",
      "outputs": [],
      "stateMutability": "nonpayable",
      "type": "function"
    }
  ],
  "bytecode": "0x6080604052348015600f57600080fd5b50606d80601d6000396000f3fe6080604052348015600f57600080fd5b506004361060285760003560e01c80634542295f14602d575b600080fd5b60336035565b005b56fea2646970667358221220cd327ef4c65fb7110b49da23d750c342635648f8392eff898ea776fe6ec69dbd64736f6c63430008120033",
  "linkReferences": {},
  "deployedLinkReferences": {}
}