{
  "_format": "hh-sol-artifact-1",
  "contractName": "DriverPayment",
  "sourceName": "contracts/DriverPayment.sol",
  "abi": [
    {
      "inputs": [
        {
          "internalType": "address",
          "name": "_usdcToken",
          "type": "address"
        }
      ],
      "stateMutability": "nonpayable",
      "type": "constructor"
    },
    {
      "anonymous": false,
      "inputs": [
        {
          "indexed": true,
          "internalType": "address",
          "name": "previousOwner",
          "type": "address"
        },
        {
          "indexed": true,
          "internalType": "address",
          "name": "newOwner",
          "type": "address"
        }
      ],
      "name": "OwnershipTransferred",
      "type": "event"
    },
    {
      "inputs": [
        {
          "internalType": "string",
          "name": "_plate",
          "type": "string"
        }
      ],
      "name": "createEntry",
      "outputs": [],
      "stateMutability": "nonpayable",
      "type": "function"
    },
    {
      "inputs": [],
      "name": "createStation",
      "outputs": [],
      "stateMutability": "nonpayable",
      "type": "function"
    },
    {
      "inputs": [
        {
          "internalType": "string",
          "name": "_plate",
          "type": "string"
        }
      ],
      "name": "deleteEntry",
      "outputs": [],
      "stateMutability": "nonpayable",
      "type": "function"
    },
    {
      "inputs": [
        {
          "internalType": "address",
          "name": "station",
          "type": "address"
        }
      ],
      "name": "deleteStation",
      "outputs": [],
      "stateMutability": "nonpayable",
      "type": "function"
    },
    {
      "inputs": [
        {
          "internalType": "uint256",
          "name": "amount",
          "type": "uint256"
        }
      ],
      "name": "depositUSDC",
      "outputs": [],
      "stateMutability": "payable",
      "type": "function"
    },
    {
      "inputs": [
        {
          "internalType": "address",
          "name": "",
          "type": "address"
        }
      ],
      "name": "driverBalances",
      "outputs": [
        {
          "internalType": "uint256",
          "name": "",
          "type": "uint256"
        }
      ],
      "stateMutability": "view",
      "type": "function"
    },
    {
      "inputs": [
        {
          "internalType": "address",
          "name": "_driver",
          "type": "address"
        }
      ],
      "name": "getDriverBalance",
      "outputs": [
        {
          "internalType": "uint256",
          "name": "",
          "type": "uint256"
        }
      ],
      "stateMutability": "nonpayable",
      "type": "function"
    },
    {
      "inputs": [],
      "name": "interestRate",
      "outputs": [
        {
          "internalType": "uint256",
          "name": "",
          "type": "uint256"
        }
      ],
      "stateMutability": "view",
      "type": "function"
    },
    {
      "inputs": [],
      "name": "owner",
      "outputs": [
        {
          "internalType": "address",
          "name": "",
          "type": "address"
        }
      ],
      "stateMutability": "view",
      "type": "function"
    },
    {
      "inputs": [
        {
          "internalType": "string",
          "name": "_plate",
          "type": "string"
        },
        {
          "internalType": "address",
          "name": "_station",
          "type": "address"
        },
        {
          "internalType": "uint256",
          "name": "_amount",
          "type": "uint256"
        }
      ],
      "name": "pay",
      "outputs": [],
      "stateMutability": "nonpayable",
      "type": "function"
    },
    {
      "inputs": [],
      "name": "payInterestPeriod",
      "outputs": [
        {
          "internalType": "uint256",
          "name": "",
          "type": "uint256"
        }
      ],
      "stateMutability": "view",
      "type": "function"
    },
    {
      "inputs": [],
      "name": "renounceOwnership",
      "outputs": [],
      "stateMutability": "nonpayable",
      "type": "function"
    },
    {
      "inputs": [],
      "name": "rewardRate",
      "outputs": [
        {
          "internalType": "uint256",
          "name": "",
          "type": "uint256"
        }
      ],
      "stateMutability": "view",
      "type": "function"
    },
    {
      "inputs": [],
      "name": "serviceFeeRate",
      "outputs": [
        {
          "internalType": "uint256",
          "name": "",
          "type": "uint256"
        }
      ],
      "stateMutability": "view",
      "type": "function"
    },
    {
      "inputs": [
        {
          "internalType": "address",
          "name": "",
          "type": "address"
        }
      ],
      "name": "stationBalances",
      "outputs": [
        {
          "internalType": "uint256",
          "name": "",
          "type": "uint256"
        }
      ],
      "stateMutability": "view",
      "type": "function"
    },
    {
      "inputs": [
        {
          "internalType": "uint256",
          "name": "amount",
          "type": "uint256"
        }
      ],
      "name": "stationWithdrawUSDC",
      "outputs": [],
      "stateMutability": "payable",
      "type": "function"
    },
    {
      "inputs": [
        {
          "internalType": "address",
          "name": "",
          "type": "address"
        }
      ],
      "name": "timestamps",
      "outputs": [
        {
          "internalType": "uint256",
          "name": "",
          "type": "uint256"
        }
      ],
      "stateMutability": "view",
      "type": "function"
    },
    {
      "inputs": [
        {
          "internalType": "address",
          "name": "newOwner",
          "type": "address"
        }
      ],
      "name": "transferOwnership",
      "outputs": [],
      "stateMutability": "nonpayable",
      "type": "function"
    },
    {
      "inputs": [],
      "name": "usdcToken",
      "outputs": [
        {
          "internalType": "address",
          "name": "",
          "type": "address"
        }
      ],
      "stateMutability": "view",
      "type": "function"
    },
    {
      "inputs": [
        {
          "internalType": "string",
          "name": "_plate",
          "type": "string"
        }
      ],
      "name": "viewEntry",
      "outputs": [
        {
          "internalType": "address",
          "name": "",
          "type": "address"
        }
      ],
      "stateMutability": "view",
      "type": "function"
    },
    {
      "inputs": [
        {
          "internalType": "address",
          "name": "station",
          "type": "address"
        }
      ],
      "name": "viewStationBalance",
      "outputs": [
        {
          "internalType": "uint256",
          "name": "",
          "type": "uint256"
        }
      ],
      "stateMutability": "view",
      "type": "function"
    }
  ],
  "bytecode": "0x6080604052670de0b6b3a76400006002556706f05b59d3b200006003556702c68af0bb14000060045562278d006005553480156200003c57600080fd5b50604051620022c4380380620022c4833981810160405281019062000062919062000361565b6200008262000076620000db60201b60201c565b620000e360201b60201c565b6200009333620001a760201b60201c565b80600160006101000a81548173ffffffffffffffffffffffffffffffffffffffff021916908373ffffffffffffffffffffffffffffffffffffffff16021790555050620004ae565b600033905090565b60008060009054906101000a900473ffffffffffffffffffffffffffffffffffffffff169050816000806101000a81548173ffffffffffffffffffffffffffffffffffffffff021916908373ffffffffffffffffffffffffffffffffffffffff1602179055508173ffffffffffffffffffffffffffffffffffffffff168173ffffffffffffffffffffffffffffffffffffffff167f8be0079c531659141344cd1fd0a4f28419497f9722a3daafe3b4186f6b6457e060405160405180910390a35050565b620001b76200023d60201b60201c565b600073ffffffffffffffffffffffffffffffffffffffff168173ffffffffffffffffffffffffffffffffffffffff160362000229576040517f08c379a000000000000000000000000000000000000000000000000000000000815260040162000220906200041a565b60405180910390fd5b6200023a81620000e360201b60201c565b50565b6200024d620000db60201b60201c565b73ffffffffffffffffffffffffffffffffffffffff1662000273620002ce60201b60201c565b73ffffffffffffffffffffffffffffffffffffffff1614620002cc576040517f08c379a0000000000000000000000000000000000000000000000000000000008152600401620002c3906200048c565b60405180910390fd5b565b60008060009054906101000a900473ffffffffffffffffffffffffffffffffffffffff16905090565b600080fd5b600073ffffffffffffffffffffffffffffffffffffffff82169050919050565b60006200032982620002fc565b9050919050565b6200033b816200031c565b81146200034757600080fd5b50565b6000815190506200035b8162000330565b92915050565b6000602082840312156200037a5762000379620002f7565b5b60006200038a848285016200034a565b91505092915050565b600082825260208201905092915050565b7f4f776e61626c653a206e6577206f776e657220697320746865207a65726f206160008201527f6464726573730000000000000000000000000000000000000000000000000000602082015250565b60006200040260268362000393565b91506200040f82620003a4565b604082019050919050565b600060208201905081810360008301526200043581620003f3565b9050919050565b7f4f776e61626c653a2063616c6c6572206973206e6f7420746865206f776e6572600082015250565b60006200047460208362000393565b915062000481826200043c565b602082019050919050565b60006020820190508181036000830152620004a78162000465565b9050919050565b611e0680620004be6000396000f3fe60806040526004361061012a5760003560e01c80637b0a47ee116100ab578063bec9a4691161006f578063bec9a469146103ce578063c53735a3146103f7578063d68f0ec914610434578063e9c98e6814610450578063f2fde38b1461048d578063f688bcfb146104b65761012a565b80637b0a47ee146102e75780637c3a00fd146103125780638da5cb5b1461033d578063a0d3280214610368578063b4ee0be5146103915761012a565b806322642f75116100f257806322642f75146102145780635425c37f1461022b57806361d1bc9414610268578063666255cb14610293578063715018a6146102d05761012a565b80630a90e1791461012f5780630fa5083f1461015857806311eac8551461019557806317674544146101c05780631a20db7a146101e9575b600080fd5b34801561013b57600080fd5b5061015660048036038101906101519190611633565b6104d2565b005b34801561016457600080fd5b5061017f600480360381019061017a91906116a2565b61066a565b60405161018c91906116de565b60405180910390f35b3480156101a157600080fd5b506101aa610682565b6040516101b79190611708565b60405180910390f35b3480156101cc57600080fd5b506101e760048036038101906101e29190611723565b6106a8565b005b3480156101f557600080fd5b506101fe610715565b60405161020b91906116de565b60405180910390f35b34801561022057600080fd5b5061022961071b565b005b34801561023757600080fd5b50610252600480360381019061024d91906116a2565b610762565b60405161025f91906116de565b60405180910390f35b34801561027457600080fd5b5061027d6107ab565b60405161028a91906116de565b60405180910390f35b34801561029f57600080fd5b506102ba60048036038101906102b591906116a2565b6107b1565b6040516102c791906116de565b60405180910390f35b3480156102dc57600080fd5b506102e56108c8565b005b3480156102f357600080fd5b506102fc6108dc565b60405161030991906116de565b60405180910390f35b34801561031e57600080fd5b506103276108e2565b60405161033491906116de565b60405180910390f35b34801561034957600080fd5b506103526108e8565b60405161035f9190611708565b60405180910390f35b34801561037457600080fd5b5061038f600480360381019061038a91906116a2565b610911565b005b34801561039d57600080fd5b506103b860048036038101906103b39190611723565b610957565b6040516103c59190611708565b60405180910390f35b3480156103da57600080fd5b506103f560048036038101906103f09190611723565b6109c8565b005b34801561040357600080fd5b5061041e600480360381019061041991906116a2565b610a49565b60405161042b91906116de565b60405180910390f35b61044e6004803603810190610449919061176c565b610a61565b005b34801561045c57600080fd5b50610477600480360381019061047291906116a2565b610b89565b60405161048491906116de565b60405180910390f35b34801561049957600080fd5b506104b460048036038101906104af91906116a2565b610ba1565b005b6104d060048036038101906104cb919061176c565b610c24565b005b6104da610d64565b60006104e584610957565b90506104f081610de2565b81600760008373ffffffffffffffffffffffffffffffffffffffff1673ffffffffffffffffffffffffffffffffffffffff16815260200190815260200160002054101561053c57600080fd5b81600760008373ffffffffffffffffffffffffffffffffffffffff1673ffffffffffffffffffffffffffffffffffffffff168152602001908152602001600020600082825461058b91906117c8565b9250508190555081600660008573ffffffffffffffffffffffffffffffffffffffff1673ffffffffffffffffffffffffffffffffffffffff16815260200190815260200160002060008282546105e191906117fc565b925050819055506000678ac7230489e80000600354846106019190611830565b61060b91906118a1565b905080600760008473ffffffffffffffffffffffffffffffffffffffff1673ffffffffffffffffffffffffffffffffffffffff168152602001908152602001600020600082825461065c91906117fc565b925050819055505050505050565b60066020528060005260406000206000915090505481565b600160009054906101000a900473ffffffffffffffffffffffffffffffffffffffff1681565b6106b0610d64565b6000816040516020016106c39190611943565b6040516020818303038152906040528051906020012090506008600082815260200190815260200160002060006101000a81549073ffffffffffffffffffffffffffffffffffffffff02191690555050565b60055481565b6000600660003373ffffffffffffffffffffffffffffffffffffffff1673ffffffffffffffffffffffffffffffffffffffff16815260200190815260200160002081905550565b6000600660008373ffffffffffffffffffffffffffffffffffffffff1673ffffffffffffffffffffffffffffffffffffffff168152602001908152602001600020549050919050565b60045481565b60006107bb610d64565b6107fa6040518060400160405280601381526020017f626c6f636b2e74696d657374616d703a2025730000000000000000000000000081525042610e5e565b61080382610de2565b6108816040518060400160405280601b81526020017f64726976657242616c616e6365735b5f6472697665725d3a2025730000000000815250600760008573ffffffffffffffffffffffffffffffffffffffff1673ffffffffffffffffffffffffffffffffffffffff16815260200190815260200160002054610e5e565b600760008373ffffffffffffffffffffffffffffffffffffffff1673ffffffffffffffffffffffffffffffffffffffff168152602001908152602001600020549050919050565b6108d0610d64565b6108da6000610efa565b565b60035481565b60025481565b60008060009054906101000a900473ffffffffffffffffffffffffffffffffffffffff16905090565b600660008273ffffffffffffffffffffffffffffffffffffffff1673ffffffffffffffffffffffffffffffffffffffff1681526020019081526020016000206000905550565b6000610961610d64565b6000826040516020016109749190611943565b6040516020818303038152906040528051906020012090506008600082815260200190815260200160002060009054906101000a900473ffffffffffffffffffffffffffffffffffffffff16915050919050565b6000816040516020016109db9190611943565b604051602081830303815290604052805190602001209050336008600083815260200190815260200160002060006101000a81548173ffffffffffffffffffffffffffffffffffffffff021916908373ffffffffffffffffffffffffffffffffffffffff1602179055505050565b60076020528060005260406000206000915090505481565b80600660003373ffffffffffffffffffffffffffffffffffffffff1673ffffffffffffffffffffffffffffffffffffffff168152602001908152602001600020541015610aad57600080fd5b80600660003373ffffffffffffffffffffffffffffffffffffffff1673ffffffffffffffffffffffffffffffffffffffff1681526020019081526020016000206000828254610afc91906117c8565b92505081905550678ac7230489e80000600454678ac7230489e80000610b2291906117c8565b610b2c91906118a1565b81610b379190611830565b9050610b863382600160009054906101000a900473ffffffffffffffffffffffffffffffffffffffff1673ffffffffffffffffffffffffffffffffffffffff16610fbe9092919063ffffffff16565b50565b60096020528060005260406000206000915090505481565b610ba9610d64565b600073ffffffffffffffffffffffffffffffffffffffff168173ffffffffffffffffffffffffffffffffffffffff1603610c18576040517f08c379a0000000000000000000000000000000000000000000000000000000008152600401610c0f906119dd565b60405180910390fd5b610c2181610efa565b50565b80600760003373ffffffffffffffffffffffffffffffffffffffff1673ffffffffffffffffffffffffffffffffffffffff1681526020019081526020016000206000828254610c7391906117fc565b92505081905550600160009054906101000a900473ffffffffffffffffffffffffffffffffffffffff1673ffffffffffffffffffffffffffffffffffffffff166323b872dd3330846040518463ffffffff1660e01b8152600401610cd9939291906119fd565b6020604051808303816000875af1158015610cf8573d6000803e3d6000fd5b505050506040513d601f19601f82011682018060405250810190610d1c9190611a6c565b5042600960003373ffffffffffffffffffffffffffffffffffffffff1673ffffffffffffffffffffffffffffffffffffffff1681526020019081526020016000208190555050565b610d6c611044565b73ffffffffffffffffffffffffffffffffffffffff16610d8a6108e8565b73ffffffffffffffffffffffffffffffffffffffff1614610de0576040517f08c379a0000000000000000000000000000000000000000000000000000000008152600401610dd790611ae5565b60405180910390fd5b565b610dea610d64565b6000600554600960008473ffffffffffffffffffffffffffffffffffffffff1673ffffffffffffffffffffffffffffffffffffffff1681526020019081526020016000205442610e3a91906117c8565b610e4491906118a1565b90506000811115610e5a57610e59828261104c565b5b5050565b610ef68282604051602401610e74929190611b3e565b6040516020818303038152906040527fb60e72cc000000000000000000000000000000000000000000000000000000007bffffffffffffffffffffffffffffffffffffffffffffffffffffffff19166020820180517bffffffffffffffffffffffffffffffffffffffffffffffffffffffff8381831617835250505050611188565b5050565b60008060009054906101000a900473ffffffffffffffffffffffffffffffffffffffff169050816000806101000a81548173ffffffffffffffffffffffffffffffffffffffff021916908373ffffffffffffffffffffffffffffffffffffffff1602179055508173ffffffffffffffffffffffffffffffffffffffff168173ffffffffffffffffffffffffffffffffffffffff167f8be0079c531659141344cd1fd0a4f28419497f9722a3daafe3b4186f6b6457e060405160405180910390a35050565b61103f8363a9059cbb60e01b8484604051602401610fdd929190611b6e565b604051602081830303815290604052907bffffffffffffffffffffffffffffffffffffffffffffffffffffffff19166020820180517bffffffffffffffffffffffffffffffffffffffffffffffffffffffff83818316178352505050506111b1565b505050565b600033905090565b611054610d64565b60008190505b600081111561113f57678ac7230489e8000060025461107991906117fc565b600760008573ffffffffffffffffffffffffffffffffffffffff1673ffffffffffffffffffffffffffffffffffffffff16815260200190815260200160002060008282546110c79190611830565b92505081905550678ac7230489e80000600760008573ffffffffffffffffffffffffffffffffffffffff1673ffffffffffffffffffffffffffffffffffffffff168152602001908152602001600020600082825461112591906118a1565b92505081905550808061113790611b97565b91505061105a565b5042600960008473ffffffffffffffffffffffffffffffffffffffff1673ffffffffffffffffffffffffffffffffffffffff168152602001908152602001600020819055505050565b60008151905060006a636f6e736f6c652e6c6f679050602083016000808483855afa5050505050565b6000611213826040518060400160405280602081526020017f5361666545524332303a206c6f772d6c6576656c2063616c6c206661696c65648152508573ffffffffffffffffffffffffffffffffffffffff166112789092919063ffffffff16565b905060008151111561127357808060200190518101906112339190611a6c565b611272576040517f08c379a000000000000000000000000000000000000000000000000000000000815260040161126990611c32565b60405180910390fd5b5b505050565b60606112878484600085611290565b90509392505050565b6060824710156112d5576040517f08c379a00000000000000000000000000000000000000000000000000000000081526004016112cc90611cc4565b60405180910390fd5b6000808673ffffffffffffffffffffffffffffffffffffffff1685876040516112fe9190611d2b565b60006040518083038185875af1925050503d806000811461133b576040519150601f19603f3d011682016040523d82523d6000602084013e611340565b606091505b50915091506113518783838761135d565b92505050949350505050565b606083156113bf5760008351036113b757611377856113d2565b6113b6576040517f08c379a00000000000000000000000000000000000000000000000000000000081526004016113ad90611d8e565b60405180910390fd5b5b8290506113ca565b6113c983836113f5565b5b949350505050565b6000808273ffffffffffffffffffffffffffffffffffffffff163b119050919050565b6000825111156114085781518083602001fd5b806040517f08c379a000000000000000000000000000000000000000000000000000000000815260040161143c9190611dae565b60405180910390fd5b6000604051905090565b600080fd5b600080fd5b600080fd5b600080fd5b6000601f19601f8301169050919050565b7f4e487b7100000000000000000000000000000000000000000000000000000000600052604160045260246000fd5b6114ac82611463565b810181811067ffffffffffffffff821117156114cb576114ca611474565b5b80604052505050565b60006114de611445565b90506114ea82826114a3565b919050565b600067ffffffffffffffff82111561150a57611509611474565b5b61151382611463565b9050602081019050919050565b82818337600083830152505050565b600061154261153d846114ef565b6114d4565b90508281526020810184848401111561155e5761155d61145e565b5b611569848285611520565b509392505050565b600082601f83011261158657611585611459565b5b813561159684826020860161152f565b91505092915050565b600073ffffffffffffffffffffffffffffffffffffffff82169050919050565b60006115ca8261159f565b9050919050565b6115da816115bf565b81146115e557600080fd5b50565b6000813590506115f7816115d1565b92915050565b6000819050919050565b611610816115fd565b811461161b57600080fd5b50565b60008135905061162d81611607565b92915050565b60008060006060848603121561164c5761164b61144f565b5b600084013567ffffffffffffffff81111561166a57611669611454565b5b61167686828701611571565b9350506020611687868287016115e8565b92505060406116988682870161161e565b9150509250925092565b6000602082840312156116b8576116b761144f565b5b60006116c6848285016115e8565b91505092915050565b6116d8816115fd565b82525050565b60006020820190506116f360008301846116cf565b92915050565b611702816115bf565b82525050565b600060208201905061171d60008301846116f9565b92915050565b6000602082840312156117395761173861144f565b5b600082013567ffffffffffffffff81111561175757611756611454565b5b61176384828501611571565b91505092915050565b6000602082840312156117825761178161144f565b5b60006117908482850161161e565b91505092915050565b7f4e487b7100000000000000000000000000000000000000000000000000000000600052601160045260246000fd5b60006117d3826115fd565b91506117de836115fd565b92508282039050818111156117f6576117f5611799565b5b92915050565b6000611807826115fd565b9150611812836115fd565b925082820190508082111561182a57611829611799565b5b92915050565b600061183b826115fd565b9150611846836115fd565b9250828202611854816115fd565b9150828204841483151761186b5761186a611799565b5b5092915050565b7f4e487b7100000000000000000000000000000000000000000000000000000000600052601260045260246000fd5b60006118ac826115fd565b91506118b7836115fd565b9250826118c7576118c6611872565b5b828204905092915050565b600081519050919050565b600081905092915050565b60005b838110156119065780820151818401526020810190506118eb565b60008484015250505050565b600061191d826118d2565b61192781856118dd565b93506119378185602086016118e8565b80840191505092915050565b600061194f8284611912565b915081905092915050565b600082825260208201905092915050565b7f4f776e61626c653a206e6577206f776e657220697320746865207a65726f206160008201527f6464726573730000000000000000000000000000000000000000000000000000602082015250565b60006119c760268361195a565b91506119d28261196b565b604082019050919050565b600060208201905081810360008301526119f6816119ba565b9050919050565b6000606082019050611a1260008301866116f9565b611a1f60208301856116f9565b611a2c60408301846116cf565b949350505050565b60008115159050919050565b611a4981611a34565b8114611a5457600080fd5b50565b600081519050611a6681611a40565b92915050565b600060208284031215611a8257611a8161144f565b5b6000611a9084828501611a57565b91505092915050565b7f4f776e61626c653a2063616c6c6572206973206e6f7420746865206f776e6572600082015250565b6000611acf60208361195a565b9150611ada82611a99565b602082019050919050565b60006020820190508181036000830152611afe81611ac2565b9050919050565b6000611b10826118d2565b611b1a818561195a565b9350611b2a8185602086016118e8565b611b3381611463565b840191505092915050565b60006040820190508181036000830152611b588185611b05565b9050611b6760208301846116cf565b9392505050565b6000604082019050611b8360008301856116f9565b611b9060208301846116cf565b9392505050565b6000611ba2826115fd565b915060008203611bb557611bb4611799565b5b600182039050919050565b7f5361666545524332303a204552433230206f7065726174696f6e20646964206e60008201527f6f74207375636365656400000000000000000000000000000000000000000000602082015250565b6000611c1c602a8361195a565b9150611c2782611bc0565b604082019050919050565b60006020820190508181036000830152611c4b81611c0f565b9050919050565b7f416464726573733a20696e73756666696369656e742062616c616e636520666f60008201527f722063616c6c0000000000000000000000000000000000000000000000000000602082015250565b6000611cae60268361195a565b9150611cb982611c52565b604082019050919050565b60006020820190508181036000830152611cdd81611ca1565b9050919050565b600081519050919050565b600081905092915050565b6000611d0582611ce4565b611d0f8185611cef565b9350611d1f8185602086016118e8565b80840191505092915050565b6000611d378284611cfa565b915081905092915050565b7f416464726573733a2063616c6c20746f206e6f6e2d636f6e7472616374000000600082015250565b6000611d78601d8361195a565b9150611d8382611d42565b602082019050919050565b60006020820190508181036000830152611da781611d6b565b9050919050565b60006020820190508181036000830152611dc88184611b05565b90509291505056fea264697066735822122009572cc163825875b5b15fcacb3d2c8f53969a788cbbc0ae32b7c091e7a0423a64736f6c63430008120033",
  "linkReferences": {},
  "deployedLinkReferences": {}
}