{
  "_format": "hh-sol-artifact-1",
  "contractName": "DriverPayment",
  "sourceName": "contracts/DriverPayment.sol",
  "abi": [
    {
      "inputs": [
        {
          "internalType": "address",
          "name": "_usdcToken",
          "type": "address"
        }
      ],
      "stateMutability": "nonpayable",
      "type": "constructor"
    },
    {
      "anonymous": false,
      "inputs": [
        {
          "indexed": true,
          "internalType": "address",
          "name": "previousOwner",
          "type": "address"
        },
        {
          "indexed": true,
          "internalType": "address",
          "name": "newOwner",
          "type": "address"
        }
      ],
      "name": "OwnershipTransferred",
      "type": "event"
    },
    {
      "inputs": [
        {
          "internalType": "string",
          "name": "_plate",
          "type": "string"
        }
      ],
      "name": "createEntry",
      "outputs": [],
      "stateMutability": "nonpayable",
      "type": "function"
    },
    {
      "inputs": [
        {
          "internalType": "address",
          "name": "station",
          "type": "address"
        }
      ],
      "name": "createStation",
      "outputs": [],
      "stateMutability": "nonpayable",
      "type": "function"
    },
    {
      "inputs": [
        {
          "internalType": "string",
          "name": "_plate",
          "type": "string"
        }
      ],
      "name": "deleteEntry",
      "outputs": [],
      "stateMutability": "nonpayable",
      "type": "function"
    },
    {
      "inputs": [
        {
          "internalType": "address",
          "name": "station",
          "type": "address"
        }
      ],
      "name": "deleteStation",
      "outputs": [],
      "stateMutability": "nonpayable",
      "type": "function"
    },
    {
      "inputs": [
        {
          "internalType": "uint256",
          "name": "amount",
          "type": "uint256"
        }
      ],
      "name": "depositUSDC",
      "outputs": [],
      "stateMutability": "payable",
      "type": "function"
    },
    {
      "inputs": [
        {
          "internalType": "address",
          "name": "",
          "type": "address"
        }
      ],
      "name": "driverBalances",
      "outputs": [
        {
          "internalType": "uint256",
          "name": "",
          "type": "uint256"
        }
      ],
      "stateMutability": "view",
      "type": "function"
    },
    {
      "inputs": [
        {
          "internalType": "address",
          "name": "_driver",
          "type": "address"
        }
      ],
      "name": "getDriverBalance",
      "outputs": [
        {
          "internalType": "uint256",
          "name": "",
          "type": "uint256"
        }
      ],
      "stateMutability": "nonpayable",
      "type": "function"
    },
    {
      "inputs": [],
      "name": "interestRate",
      "outputs": [
        {
          "internalType": "uint256",
          "name": "",
          "type": "uint256"
        }
      ],
      "stateMutability": "view",
      "type": "function"
    },
    {
      "inputs": [],
      "name": "owner",
      "outputs": [
        {
          "internalType": "address",
          "name": "",
          "type": "address"
        }
      ],
      "stateMutability": "view",
      "type": "function"
    },
    {
      "inputs": [
        {
          "internalType": "string",
          "name": "_plate",
          "type": "string"
        },
        {
          "internalType": "address",
          "name": "_station",
          "type": "address"
        },
        {
          "internalType": "uint256",
          "name": "_amount",
          "type": "uint256"
        }
      ],
      "name": "pay",
      "outputs": [],
      "stateMutability": "nonpayable",
      "type": "function"
    },
    {
      "inputs": [],
      "name": "payInterestPeriod",
      "outputs": [
        {
          "internalType": "uint256",
          "name": "",
          "type": "uint256"
        }
      ],
      "stateMutability": "view",
      "type": "function"
    },
    {
      "inputs": [],
      "name": "renounceOwnership",
      "outputs": [],
      "stateMutability": "nonpayable",
      "type": "function"
    },
    {
      "inputs": [],
      "name": "rewardRate",
      "outputs": [
        {
          "internalType": "uint256",
          "name": "",
          "type": "uint256"
        }
      ],
      "stateMutability": "view",
      "type": "function"
    },
    {
      "inputs": [],
      "name": "serviceFeeRate",
      "outputs": [
        {
          "internalType": "uint256",
          "name": "",
          "type": "uint256"
        }
      ],
      "stateMutability": "view",
      "type": "function"
    },
    {
      "inputs": [
        {
          "internalType": "address",
          "name": "",
          "type": "address"
        }
      ],
      "name": "stationBalances",
      "outputs": [
        {
          "internalType": "uint256",
          "name": "",
          "type": "uint256"
        }
      ],
      "stateMutability": "view",
      "type": "function"
    },
    {
      "inputs": [
        {
          "internalType": "uint256",
          "name": "amount",
          "type": "uint256"
        }
      ],
      "name": "stationWithdrawUSDC",
      "outputs": [],
      "stateMutability": "payable",
      "type": "function"
    },
    {
      "inputs": [
        {
          "internalType": "address",
          "name": "",
          "type": "address"
        }
      ],
      "name": "timestamps",
      "outputs": [
        {
          "internalType": "uint256",
          "name": "",
          "type": "uint256"
        }
      ],
      "stateMutability": "view",
      "type": "function"
    },
    {
      "inputs": [
        {
          "internalType": "address",
          "name": "newOwner",
          "type": "address"
        }
      ],
      "name": "transferOwnership",
      "outputs": [],
      "stateMutability": "nonpayable",
      "type": "function"
    },
    {
      "inputs": [],
      "name": "usdcToken",
      "outputs": [
        {
          "internalType": "address",
          "name": "",
          "type": "address"
        }
      ],
      "stateMutability": "view",
      "type": "function"
    },
    {
      "inputs": [
        {
          "internalType": "string",
          "name": "_plate",
          "type": "string"
        }
      ],
      "name": "viewEntry",
      "outputs": [
        {
          "internalType": "address",
          "name": "",
          "type": "address"
        }
      ],
      "stateMutability": "view",
      "type": "function"
    },
    {
      "inputs": [
        {
          "internalType": "address",
          "name": "station",
          "type": "address"
        }
      ],
      "name": "viewStationBalance",
      "outputs": [
        {
          "internalType": "uint256",
          "name": "",
          "type": "uint256"
        }
      ],
      "stateMutability": "view",
      "type": "function"
    }
  ],
  "bytecode": "0x6080604052670de0b6b3a76400006002556706f05b59d3b200006003556702c68af0bb14000060045562278d006005553480156200003c57600080fd5b50604051620022d7380380620022d7833981810160405281019062000062919062000361565b6200008262000076620000db60201b60201c565b620000e360201b60201c565b6200009333620001a760201b60201c565b80600160006101000a81548173ffffffffffffffffffffffffffffffffffffffff021916908373ffffffffffffffffffffffffffffffffffffffff16021790555050620004ae565b600033905090565b60008060009054906101000a900473ffffffffffffffffffffffffffffffffffffffff169050816000806101000a81548173ffffffffffffffffffffffffffffffffffffffff021916908373ffffffffffffffffffffffffffffffffffffffff1602179055508173ffffffffffffffffffffffffffffffffffffffff168173ffffffffffffffffffffffffffffffffffffffff167f8be0079c531659141344cd1fd0a4f28419497f9722a3daafe3b4186f6b6457e060405160405180910390a35050565b620001b76200023d60201b60201c565b600073ffffffffffffffffffffffffffffffffffffffff168173ffffffffffffffffffffffffffffffffffffffff160362000229576040517f08c379a000000000000000000000000000000000000000000000000000000000815260040162000220906200041a565b60405180910390fd5b6200023a81620000e360201b60201c565b50565b6200024d620000db60201b60201c565b73ffffffffffffffffffffffffffffffffffffffff1662000273620002ce60201b60201c565b73ffffffffffffffffffffffffffffffffffffffff1614620002cc576040517f08c379a0000000000000000000000000000000000000000000000000000000008152600401620002c3906200048c565b60405180910390fd5b565b60008060009054906101000a900473ffffffffffffffffffffffffffffffffffffffff16905090565b600080fd5b600073ffffffffffffffffffffffffffffffffffffffff82169050919050565b60006200032982620002fc565b9050919050565b6200033b816200031c565b81146200034757600080fd5b50565b6000815190506200035b8162000330565b92915050565b6000602082840312156200037a5762000379620002f7565b5b60006200038a848285016200034a565b91505092915050565b600082825260208201905092915050565b7f4f776e61626c653a206e6577206f776e657220697320746865207a65726f206160008201527f6464726573730000000000000000000000000000000000000000000000000000602082015250565b60006200040260268362000393565b91506200040f82620003a4565b604082019050919050565b600060208201905081810360008301526200043581620003f3565b9050919050565b7f4f776e61626c653a2063616c6c6572206973206e6f7420746865206f776e6572600082015250565b60006200047460208362000393565b915062000481826200043c565b602082019050919050565b60006020820190508181036000830152620004a78162000465565b9050919050565b611e1980620004be6000396000f3fe60806040526004361061012a5760003560e01c80637c3a00fd116100ab578063c53735a31161006f578063c53735a3146103e0578063c71040601461041d578063d68f0ec914610446578063e9c98e6814610462578063f2fde38b1461049f578063f688bcfb146104c85761012a565b80637c3a00fd146102fb5780638da5cb5b14610326578063a0d3280214610351578063b4ee0be51461037a578063bec9a469146103b75761012a565b80635425c37f116100f25780635425c37f1461021457806361d1bc9414610251578063666255cb1461027c578063715018a6146102b95780637b0a47ee146102d05761012a565b80630a90e1791461012f5780630fa5083f1461015857806311eac8551461019557806317674544146101c05780631a20db7a146101e9575b600080fd5b34801561013b57600080fd5b5061015660048036038101906101519190611646565b6104e4565b005b34801561016457600080fd5b5061017f600480360381019061017a91906116b5565b61067c565b60405161018c91906116f1565b60405180910390f35b3480156101a157600080fd5b506101aa610694565b6040516101b7919061171b565b60405180910390f35b3480156101cc57600080fd5b506101e760048036038101906101e29190611736565b6106ba565b005b3480156101f557600080fd5b506101fe610727565b60405161020b91906116f1565b60405180910390f35b34801561022057600080fd5b5061023b600480360381019061023691906116b5565b61072d565b60405161024891906116f1565b60405180910390f35b34801561025d57600080fd5b50610266610776565b60405161027391906116f1565b60405180910390f35b34801561028857600080fd5b506102a3600480360381019061029e91906116b5565b61077c565b6040516102b091906116f1565b60405180910390f35b3480156102c557600080fd5b506102ce610893565b005b3480156102dc57600080fd5b506102e56108a7565b6040516102f291906116f1565b60405180910390f35b34801561030757600080fd5b506103106108ad565b60405161031d91906116f1565b60405180910390f35b34801561033257600080fd5b5061033b6108b3565b604051610348919061171b565b60405180910390f35b34801561035d57600080fd5b50610378600480360381019061037391906116b5565b6108dc565b005b34801561038657600080fd5b506103a1600480360381019061039c9190611736565b610922565b6040516103ae919061171b565b60405180910390f35b3480156103c357600080fd5b506103de60048036038101906103d99190611736565b610993565b005b3480156103ec57600080fd5b50610407600480360381019061040291906116b5565b610a14565b60405161041491906116f1565b60405180910390f35b34801561042957600080fd5b50610444600480360381019061043f91906116b5565b610a2c565b005b610460600480360381019061045b919061177f565b610a74565b005b34801561046e57600080fd5b50610489600480360381019061048491906116b5565b610b9c565b60405161049691906116f1565b60405180910390f35b3480156104ab57600080fd5b506104c660048036038101906104c191906116b5565b610bb4565b005b6104e260048036038101906104dd919061177f565b610c37565b005b6104ec610d77565b60006104f784610922565b905061050281610df5565b81600760008373ffffffffffffffffffffffffffffffffffffffff1673ffffffffffffffffffffffffffffffffffffffff16815260200190815260200160002054101561054e57600080fd5b81600760008373ffffffffffffffffffffffffffffffffffffffff1673ffffffffffffffffffffffffffffffffffffffff168152602001908152602001600020600082825461059d91906117db565b9250508190555081600660008573ffffffffffffffffffffffffffffffffffffffff1673ffffffffffffffffffffffffffffffffffffffff16815260200190815260200160002060008282546105f3919061180f565b925050819055506000678ac7230489e80000600354846106139190611843565b61061d91906118b4565b905080600760008473ffffffffffffffffffffffffffffffffffffffff1673ffffffffffffffffffffffffffffffffffffffff168152602001908152602001600020600082825461066e919061180f565b925050819055505050505050565b60066020528060005260406000206000915090505481565b600160009054906101000a900473ffffffffffffffffffffffffffffffffffffffff1681565b6106c2610d77565b6000816040516020016106d59190611956565b6040516020818303038152906040528051906020012090506008600082815260200190815260200160002060006101000a81549073ffffffffffffffffffffffffffffffffffffffff02191690555050565b60055481565b6000600660008373ffffffffffffffffffffffffffffffffffffffff1673ffffffffffffffffffffffffffffffffffffffff168152602001908152602001600020549050919050565b60045481565b6000610786610d77565b6107c56040518060400160405280601381526020017f626c6f636b2e74696d657374616d703a2025730000000000000000000000000081525042610e71565b6107ce82610df5565b61084c6040518060400160405280601b81526020017f64726976657242616c616e6365735b5f6472697665725d3a2025730000000000815250600760008573ffffffffffffffffffffffffffffffffffffffff1673ffffffffffffffffffffffffffffffffffffffff16815260200190815260200160002054610e71565b600760008373ffffffffffffffffffffffffffffffffffffffff1673ffffffffffffffffffffffffffffffffffffffff168152602001908152602001600020549050919050565b61089b610d77565b6108a56000610f0d565b565b60035481565b60025481565b60008060009054906101000a900473ffffffffffffffffffffffffffffffffffffffff16905090565b600660008273ffffffffffffffffffffffffffffffffffffffff1673ffffffffffffffffffffffffffffffffffffffff1681526020019081526020016000206000905550565b600061092c610d77565b60008260405160200161093f9190611956565b6040516020818303038152906040528051906020012090506008600082815260200190815260200160002060009054906101000a900473ffffffffffffffffffffffffffffffffffffffff16915050919050565b6000816040516020016109a69190611956565b604051602081830303815290604052805190602001209050336008600083815260200190815260200160002060006101000a81548173ffffffffffffffffffffffffffffffffffffffff021916908373ffffffffffffffffffffffffffffffffffffffff1602179055505050565b60076020528060005260406000206000915090505481565b6000600660008373ffffffffffffffffffffffffffffffffffffffff1673ffffffffffffffffffffffffffffffffffffffff1681526020019081526020016000208190555050565b80600660003373ffffffffffffffffffffffffffffffffffffffff1673ffffffffffffffffffffffffffffffffffffffff168152602001908152602001600020541015610ac057600080fd5b80600660003373ffffffffffffffffffffffffffffffffffffffff1673ffffffffffffffffffffffffffffffffffffffff1681526020019081526020016000206000828254610b0f91906117db565b92505081905550678ac7230489e80000600454678ac7230489e80000610b3591906117db565b610b3f91906118b4565b81610b4a9190611843565b9050610b993382600160009054906101000a900473ffffffffffffffffffffffffffffffffffffffff1673ffffffffffffffffffffffffffffffffffffffff16610fd19092919063ffffffff16565b50565b60096020528060005260406000206000915090505481565b610bbc610d77565b600073ffffffffffffffffffffffffffffffffffffffff168173ffffffffffffffffffffffffffffffffffffffff1603610c2b576040517f08c379a0000000000000000000000000000000000000000000000000000000008152600401610c22906119f0565b60405180910390fd5b610c3481610f0d565b50565b80600760003373ffffffffffffffffffffffffffffffffffffffff1673ffffffffffffffffffffffffffffffffffffffff1681526020019081526020016000206000828254610c86919061180f565b92505081905550600160009054906101000a900473ffffffffffffffffffffffffffffffffffffffff1673ffffffffffffffffffffffffffffffffffffffff166323b872dd3330846040518463ffffffff1660e01b8152600401610cec93929190611a10565b6020604051808303816000875af1158015610d0b573d6000803e3d6000fd5b505050506040513d601f19601f82011682018060405250810190610d2f9190611a7f565b5042600960003373ffffffffffffffffffffffffffffffffffffffff1673ffffffffffffffffffffffffffffffffffffffff1681526020019081526020016000208190555050565b610d7f611057565b73ffffffffffffffffffffffffffffffffffffffff16610d9d6108b3565b73ffffffffffffffffffffffffffffffffffffffff1614610df3576040517f08c379a0000000000000000000000000000000000000000000000000000000008152600401610dea90611af8565b60405180910390fd5b565b610dfd610d77565b6000600554600960008473ffffffffffffffffffffffffffffffffffffffff1673ffffffffffffffffffffffffffffffffffffffff1681526020019081526020016000205442610e4d91906117db565b610e5791906118b4565b90506000811115610e6d57610e6c828261105f565b5b5050565b610f098282604051602401610e87929190611b51565b6040516020818303038152906040527fb60e72cc000000000000000000000000000000000000000000000000000000007bffffffffffffffffffffffffffffffffffffffffffffffffffffffff19166020820180517bffffffffffffffffffffffffffffffffffffffffffffffffffffffff838183161783525050505061119b565b5050565b60008060009054906101000a900473ffffffffffffffffffffffffffffffffffffffff169050816000806101000a81548173ffffffffffffffffffffffffffffffffffffffff021916908373ffffffffffffffffffffffffffffffffffffffff1602179055508173ffffffffffffffffffffffffffffffffffffffff168173ffffffffffffffffffffffffffffffffffffffff167f8be0079c531659141344cd1fd0a4f28419497f9722a3daafe3b4186f6b6457e060405160405180910390a35050565b6110528363a9059cbb60e01b8484604051602401610ff0929190611b81565b604051602081830303815290604052907bffffffffffffffffffffffffffffffffffffffffffffffffffffffff19166020820180517bffffffffffffffffffffffffffffffffffffffffffffffffffffffff83818316178352505050506111c4565b505050565b600033905090565b611067610d77565b60008190505b600081111561115257678ac7230489e8000060025461108c919061180f565b600760008573ffffffffffffffffffffffffffffffffffffffff1673ffffffffffffffffffffffffffffffffffffffff16815260200190815260200160002060008282546110da9190611843565b92505081905550678ac7230489e80000600760008573ffffffffffffffffffffffffffffffffffffffff1673ffffffffffffffffffffffffffffffffffffffff168152602001908152602001600020600082825461113891906118b4565b92505081905550808061114a90611baa565b91505061106d565b5042600960008473ffffffffffffffffffffffffffffffffffffffff1673ffffffffffffffffffffffffffffffffffffffff168152602001908152602001600020819055505050565b60008151905060006a636f6e736f6c652e6c6f679050602083016000808483855afa5050505050565b6000611226826040518060400160405280602081526020017f5361666545524332303a206c6f772d6c6576656c2063616c6c206661696c65648152508573ffffffffffffffffffffffffffffffffffffffff1661128b9092919063ffffffff16565b905060008151111561128657808060200190518101906112469190611a7f565b611285576040517f08c379a000000000000000000000000000000000000000000000000000000000815260040161127c90611c45565b60405180910390fd5b5b505050565b606061129a84846000856112a3565b90509392505050565b6060824710156112e8576040517f08c379a00000000000000000000000000000000000000000000000000000000081526004016112df90611cd7565b60405180910390fd5b6000808673ffffffffffffffffffffffffffffffffffffffff1685876040516113119190611d3e565b60006040518083038185875af1925050503d806000811461134e576040519150601f19603f3d011682016040523d82523d6000602084013e611353565b606091505b509150915061136487838387611370565b92505050949350505050565b606083156113d25760008351036113ca5761138a856113e5565b6113c9576040517f08c379a00000000000000000000000000000000000000000000000000000000081526004016113c090611da1565b60405180910390fd5b5b8290506113dd565b6113dc8383611408565b5b949350505050565b6000808273ffffffffffffffffffffffffffffffffffffffff163b119050919050565b60008251111561141b5781518083602001fd5b806040517f08c379a000000000000000000000000000000000000000000000000000000000815260040161144f9190611dc1565b60405180910390fd5b6000604051905090565b600080fd5b600080fd5b600080fd5b600080fd5b6000601f19601f8301169050919050565b7f4e487b7100000000000000000000000000000000000000000000000000000000600052604160045260246000fd5b6114bf82611476565b810181811067ffffffffffffffff821117156114de576114dd611487565b5b80604052505050565b60006114f1611458565b90506114fd82826114b6565b919050565b600067ffffffffffffffff82111561151d5761151c611487565b5b61152682611476565b9050602081019050919050565b82818337600083830152505050565b600061155561155084611502565b6114e7565b90508281526020810184848401111561157157611570611471565b5b61157c848285611533565b509392505050565b600082601f8301126115995761159861146c565b5b81356115a9848260208601611542565b91505092915050565b600073ffffffffffffffffffffffffffffffffffffffff82169050919050565b60006115dd826115b2565b9050919050565b6115ed816115d2565b81146115f857600080fd5b50565b60008135905061160a816115e4565b92915050565b6000819050919050565b61162381611610565b811461162e57600080fd5b50565b6000813590506116408161161a565b92915050565b60008060006060848603121561165f5761165e611462565b5b600084013567ffffffffffffffff81111561167d5761167c611467565b5b61168986828701611584565b935050602061169a868287016115fb565b92505060406116ab86828701611631565b9150509250925092565b6000602082840312156116cb576116ca611462565b5b60006116d9848285016115fb565b91505092915050565b6116eb81611610565b82525050565b600060208201905061170660008301846116e2565b92915050565b611715816115d2565b82525050565b6000602082019050611730600083018461170c565b92915050565b60006020828403121561174c5761174b611462565b5b600082013567ffffffffffffffff81111561176a57611769611467565b5b61177684828501611584565b91505092915050565b60006020828403121561179557611794611462565b5b60006117a384828501611631565b91505092915050565b7f4e487b7100000000000000000000000000000000000000000000000000000000600052601160045260246000fd5b60006117e682611610565b91506117f183611610565b9250828203905081811115611809576118086117ac565b5b92915050565b600061181a82611610565b915061182583611610565b925082820190508082111561183d5761183c6117ac565b5b92915050565b600061184e82611610565b915061185983611610565b925082820261186781611610565b9150828204841483151761187e5761187d6117ac565b5b5092915050565b7f4e487b7100000000000000000000000000000000000000000000000000000000600052601260045260246000fd5b60006118bf82611610565b91506118ca83611610565b9250826118da576118d9611885565b5b828204905092915050565b600081519050919050565b600081905092915050565b60005b838110156119195780820151818401526020810190506118fe565b60008484015250505050565b6000611930826118e5565b61193a81856118f0565b935061194a8185602086016118fb565b80840191505092915050565b60006119628284611925565b915081905092915050565b600082825260208201905092915050565b7f4f776e61626c653a206e6577206f776e657220697320746865207a65726f206160008201527f6464726573730000000000000000000000000000000000000000000000000000602082015250565b60006119da60268361196d565b91506119e58261197e565b604082019050919050565b60006020820190508181036000830152611a09816119cd565b9050919050565b6000606082019050611a25600083018661170c565b611a32602083018561170c565b611a3f60408301846116e2565b949350505050565b60008115159050919050565b611a5c81611a47565b8114611a6757600080fd5b50565b600081519050611a7981611a53565b92915050565b600060208284031215611a9557611a94611462565b5b6000611aa384828501611a6a565b91505092915050565b7f4f776e61626c653a2063616c6c6572206973206e6f7420746865206f776e6572600082015250565b6000611ae260208361196d565b9150611aed82611aac565b602082019050919050565b60006020820190508181036000830152611b1181611ad5565b9050919050565b6000611b23826118e5565b611b2d818561196d565b9350611b3d8185602086016118fb565b611b4681611476565b840191505092915050565b60006040820190508181036000830152611b6b8185611b18565b9050611b7a60208301846116e2565b9392505050565b6000604082019050611b96600083018561170c565b611ba360208301846116e2565b9392505050565b6000611bb582611610565b915060008203611bc857611bc76117ac565b5b600182039050919050565b7f5361666545524332303a204552433230206f7065726174696f6e20646964206e60008201527f6f74207375636365656400000000000000000000000000000000000000000000602082015250565b6000611c2f602a8361196d565b9150611c3a82611bd3565b604082019050919050565b60006020820190508181036000830152611c5e81611c22565b9050919050565b7f416464726573733a20696e73756666696369656e742062616c616e636520666f60008201527f722063616c6c0000000000000000000000000000000000000000000000000000602082015250565b6000611cc160268361196d565b9150611ccc82611c65565b604082019050919050565b60006020820190508181036000830152611cf081611cb4565b9050919050565b600081519050919050565b600081905092915050565b6000611d1882611cf7565b611d228185611d02565b9350611d328185602086016118fb565b80840191505092915050565b6000611d4a8284611d0d565b915081905092915050565b7f416464726573733a2063616c6c20746f206e6f6e2d636f6e7472616374000000600082015250565b6000611d8b601d8361196d565b9150611d9682611d55565b602082019050919050565b60006020820190508181036000830152611dba81611d7e565b9050919050565b60006020820190508181036000830152611ddb8184611b18565b90509291505056fea26469706673582212204bf7c94e330705ddb7c8ce9980b8cab138ac3d725b092fa97347ee0799309b5364736f6c63430008120033",
  "linkReferences": {},
  "deployedLinkReferences": {}
}