{
  "_format": "hh-sol-artifact-1",
  "contractName": "DriverPayment",
  "sourceName": "contracts/DriverPayment.sol",
  "abi": [
    {
      "inputs": [
        {
          "internalType": "address",
          "name": "_uniswapRouter",
          "type": "address"
        },
        {
          "internalType": "address",
          "name": "_usdcToken",
          "type": "address"
        },
        {
          "internalType": "address",
          "name": "_ethToken",
          "type": "address"
        }
      ],
      "stateMutability": "nonpayable",
      "type": "constructor"
    },
    {
      "anonymous": false,
      "inputs": [
        {
          "indexed": true,
          "internalType": "address",
          "name": "previousOwner",
          "type": "address"
        },
        {
          "indexed": true,
          "internalType": "address",
          "name": "newOwner",
          "type": "address"
        }
      ],
      "name": "OwnershipTransferred",
      "type": "event"
    },
    {
      "inputs": [
        {
          "internalType": "string",
          "name": "_plate",
          "type": "string"
        },
        {
          "internalType": "address",
          "name": "_driver",
          "type": "address"
        }
      ],
      "name": "createEntry",
      "outputs": [],
      "stateMutability": "nonpayable",
      "type": "function"
    },
    {
      "inputs": [
        {
          "internalType": "address",
          "name": "station",
          "type": "address"
        }
      ],
      "name": "createStation",
      "outputs": [],
      "stateMutability": "nonpayable",
      "type": "function"
    },
    {
      "inputs": [
        {
          "internalType": "string",
          "name": "_plate",
          "type": "string"
        }
      ],
      "name": "deleteEntry",
      "outputs": [],
      "stateMutability": "nonpayable",
      "type": "function"
    },
    {
      "inputs": [
        {
          "internalType": "address",
          "name": "station",
          "type": "address"
        }
      ],
      "name": "deleteStation",
      "outputs": [],
      "stateMutability": "nonpayable",
      "type": "function"
    },
    {
      "inputs": [
        {
          "internalType": "uint256",
          "name": "amount",
          "type": "uint256"
        }
      ],
      "name": "depositWETH",
      "outputs": [],
      "stateMutability": "payable",
      "type": "function"
    },
    {
      "inputs": [
        {
          "internalType": "address",
          "name": "_driver",
          "type": "address"
        }
      ],
      "name": "getDriverBalance",
      "outputs": [
        {
          "internalType": "uint256",
          "name": "",
          "type": "uint256"
        }
      ],
      "stateMutability": "nonpayable",
      "type": "function"
    },
    {
      "inputs": [],
      "name": "interestRate",
      "outputs": [
        {
          "internalType": "uint256",
          "name": "",
          "type": "uint256"
        }
      ],
      "stateMutability": "view",
      "type": "function"
    },
    {
      "inputs": [],
      "name": "owner",
      "outputs": [
        {
          "internalType": "address",
          "name": "",
          "type": "address"
        }
      ],
      "stateMutability": "view",
      "type": "function"
    },
    {
      "inputs": [
        {
          "internalType": "string",
          "name": "_plate",
          "type": "string"
        },
        {
          "internalType": "address",
          "name": "_station",
          "type": "address"
        },
        {
          "internalType": "uint256",
          "name": "_amount",
          "type": "uint256"
        }
      ],
      "name": "pay",
      "outputs": [],
      "stateMutability": "nonpayable",
      "type": "function"
    },
    {
      "inputs": [],
      "name": "payInterestPeriod",
      "outputs": [
        {
          "internalType": "uint256",
          "name": "",
          "type": "uint256"
        }
      ],
      "stateMutability": "view",
      "type": "function"
    },
    {
      "inputs": [],
      "name": "renounceOwnership",
      "outputs": [],
      "stateMutability": "nonpayable",
      "type": "function"
    },
    {
      "inputs": [],
      "name": "rewardRate",
      "outputs": [
        {
          "internalType": "uint256",
          "name": "",
          "type": "uint256"
        }
      ],
      "stateMutability": "view",
      "type": "function"
    },
    {
      "inputs": [],
      "name": "serviceFeeRate",
      "outputs": [
        {
          "internalType": "uint256",
          "name": "",
          "type": "uint256"
        }
      ],
      "stateMutability": "view",
      "type": "function"
    },
    {
      "inputs": [
        {
          "internalType": "uint256",
          "name": "amount",
          "type": "uint256"
        }
      ],
      "name": "stationWithdrawUSDC",
      "outputs": [],
      "stateMutability": "nonpayable",
      "type": "function"
    },
    {
      "inputs": [
        {
          "internalType": "address",
          "name": "newOwner",
          "type": "address"
        }
      ],
      "name": "transferOwnership",
      "outputs": [],
      "stateMutability": "nonpayable",
      "type": "function"
    },
    {
      "inputs": [],
      "name": "uniswapRouter",
      "outputs": [
        {
          "internalType": "contract IUniswapV2Router02",
          "name": "",
          "type": "address"
        }
      ],
      "stateMutability": "view",
      "type": "function"
    },
    {
      "inputs": [
        {
          "internalType": "string",
          "name": "_plate",
          "type": "string"
        },
        {
          "internalType": "address",
          "name": "_driver",
          "type": "address"
        }
      ],
      "name": "updateEntry",
      "outputs": [],
      "stateMutability": "nonpayable",
      "type": "function"
    },
    {
      "inputs": [
        {
          "internalType": "string",
          "name": "_plate",
          "type": "string"
        }
      ],
      "name": "viewEntry",
      "outputs": [
        {
          "internalType": "address",
          "name": "",
          "type": "address"
        }
      ],
      "stateMutability": "view",
      "type": "function"
    },
    {
      "inputs": [
        {
          "internalType": "address",
          "name": "station",
          "type": "address"
        }
      ],
      "name": "viewStationBalance",
      "outputs": [
        {
          "internalType": "uint256",
          "name": "",
          "type": "uint256"
        }
      ],
      "stateMutability": "view",
      "type": "function"
    }
  ],
  "bytecode": "0x60c060405267016345785d8a000060025566b1a2bc2ec5000060035566470de4df82000060045562278d006005553480156200003a57600080fd5b50604051620026ce380380620026ce8339818101604052810190620000609190620003c9565b62000080620000746200014360201b60201c565b6200014b60201b60201c565b62000091336200020f60201b60201c565b82600160006101000a81548173ffffffffffffffffffffffffffffffffffffffff021916908373ffffffffffffffffffffffffffffffffffffffff1602179055508173ffffffffffffffffffffffffffffffffffffffff1660808173ffffffffffffffffffffffffffffffffffffffff16815250508073ffffffffffffffffffffffffffffffffffffffff1660a08173ffffffffffffffffffffffffffffffffffffffff168152505050505062000540565b600033905090565b60008060009054906101000a900473ffffffffffffffffffffffffffffffffffffffff169050816000806101000a81548173ffffffffffffffffffffffffffffffffffffffff021916908373ffffffffffffffffffffffffffffffffffffffff1602179055508173ffffffffffffffffffffffffffffffffffffffff168173ffffffffffffffffffffffffffffffffffffffff167f8be0079c531659141344cd1fd0a4f28419497f9722a3daafe3b4186f6b6457e060405160405180910390a35050565b6200021f620002a560201b60201c565b600073ffffffffffffffffffffffffffffffffffffffff168173ffffffffffffffffffffffffffffffffffffffff160362000291576040517f08c379a00000000000000000000000000000000000000000000000000000000081526004016200028890620004ac565b60405180910390fd5b620002a2816200014b60201b60201c565b50565b620002b56200014360201b60201c565b73ffffffffffffffffffffffffffffffffffffffff16620002db6200033660201b60201c565b73ffffffffffffffffffffffffffffffffffffffff161462000334576040517f08c379a00000000000000000000000000000000000000000000000000000000081526004016200032b906200051e565b60405180910390fd5b565b60008060009054906101000a900473ffffffffffffffffffffffffffffffffffffffff16905090565b600080fd5b600073ffffffffffffffffffffffffffffffffffffffff82169050919050565b6000620003918262000364565b9050919050565b620003a38162000384565b8114620003af57600080fd5b50565b600081519050620003c38162000398565b92915050565b600080600060608486031215620003e557620003e46200035f565b5b6000620003f586828701620003b2565b93505060206200040886828701620003b2565b92505060406200041b86828701620003b2565b9150509250925092565b600082825260208201905092915050565b7f4f776e61626c653a206e6577206f776e657220697320746865207a65726f206160008201527f6464726573730000000000000000000000000000000000000000000000000000602082015250565b60006200049460268362000425565b9150620004a18262000436565b604082019050919050565b60006020820190508181036000830152620004c78162000485565b9050919050565b7f4f776e61626c653a2063616c6c6572206973206e6f7420746865206f776e6572600082015250565b60006200050660208362000425565b91506200051382620004ce565b602082019050919050565b600060208201905081810360008301526200053981620004f7565b9050919050565b60805160a0516121646200056a60003960005050600081816108300152610d0901526121646000f3fe6080604052600436106101145760003560e01c80637b0a47ee116100a0578063b4ee0be511610064578063b4ee0be51461036c578063c7104060146103a9578063d68f0ec9146103d2578063f2fde38b146103fb578063fc43f3cd1461042457610114565b80637b0a47ee146102995780637c3a00fd146102c457806385130626146102ef5780638da5cb5b14610318578063a0d328021461034357610114565b806361d1bc94116100e757806361d1bc94146101d3578063666255cb146101fe57806366dd0f241461023b578063715018a614610257578063735de9f71461026e57610114565b80630a90e1791461011957806317674544146101425780631a20db7a1461016b5780635425c37f14610196575b600080fd5b34801561012557600080fd5b50610140600480360381019061013b9190611615565b61044d565b005b34801561014e57600080fd5b5061016960048036038101906101649190611684565b6105e5565b005b34801561017757600080fd5b50610180610652565b60405161018d91906116dc565b60405180910390f35b3480156101a257600080fd5b506101bd60048036038101906101b891906116f7565b610658565b6040516101ca91906116dc565b60405180910390f35b3480156101df57600080fd5b506101e86106a1565b6040516101f591906116dc565b60405180910390f35b34801561020a57600080fd5b50610225600480360381019061022091906116f7565b6106a7565b60405161023291906116dc565b60405180910390f35b61025560048036038101906102509190611724565b610701565b005b34801561026357600080fd5b5061026c610a32565b005b34801561027a57600080fd5b50610283610a46565b60405161029091906117b0565b60405180910390f35b3480156102a557600080fd5b506102ae610a6c565b6040516102bb91906116dc565b60405180910390f35b3480156102d057600080fd5b506102d9610a72565b6040516102e691906116dc565b60405180910390f35b3480156102fb57600080fd5b50610316600480360381019061031191906117cb565b610a78565b005b34801561032457600080fd5b5061032d610b02565b60405161033a9190611836565b60405180910390f35b34801561034f57600080fd5b5061036a600480360381019061036591906116f7565b610b2b565b005b34801561037857600080fd5b50610393600480360381019061038e9190611684565b610b71565b6040516103a09190611836565b60405180910390f35b3480156103b557600080fd5b506103d060048036038101906103cb91906116f7565b610be2565b005b3480156103de57600080fd5b506103f960048036038101906103f49190611724565b610c2a565b005b34801561040757600080fd5b50610422600480360381019061041d91906116f7565b610d50565b005b34801561043057600080fd5b5061044b600480360381019061044691906117cb565b610dd3565b005b610455610e5d565b600061046084610b71565b905061046b81610edb565b81600760008373ffffffffffffffffffffffffffffffffffffffff1673ffffffffffffffffffffffffffffffffffffffff1681526020019081526020016000205410156104b757600080fd5b81600760008373ffffffffffffffffffffffffffffffffffffffff1673ffffffffffffffffffffffffffffffffffffffff16815260200190815260200160002060008282546105069190611880565b9250508190555081600660008573ffffffffffffffffffffffffffffffffffffffff1673ffffffffffffffffffffffffffffffffffffffff168152602001908152602001600020600082825461055c91906118b4565b925050819055506000670de0b6b3a76400006003548461057c91906118e8565b6105869190611959565b905080600760008473ffffffffffffffffffffffffffffffffffffffff1673ffffffffffffffffffffffffffffffffffffffff16815260200190815260200160002060008282546105d791906118b4565b925050819055505050505050565b6105ed610e5d565b60008160405160200161060091906119fb565b6040516020818303038152906040528051906020012090506008600082815260200190815260200160002060006101000a81549073ffffffffffffffffffffffffffffffffffffffff02191690555050565b60055481565b6000600660008373ffffffffffffffffffffffffffffffffffffffff1673ffffffffffffffffffffffffffffffffffffffff168152602001908152602001600020549050919050565b60045481565b60006106b1610e5d565b6106ba82610edb565b600760008373ffffffffffffffffffffffffffffffffffffffff1673ffffffffffffffffffffffffffffffffffffffff168152602001908152602001600020549050919050565b6000600267ffffffffffffffff81111561071e5761071d611456565b5b60405190808252806020026020018201604052801561074c5781602001602082028036833780820191505090505b509050600160009054906101000a900473ffffffffffffffffffffffffffffffffffffffff1673ffffffffffffffffffffffffffffffffffffffff1663ad5c46486040518163ffffffff1660e01b8152600401602060405180830381865afa1580156107bc573d6000803e3d6000fd5b505050506040513d601f19601f820116820180604052508101906107e09190611a27565b816000815181106107f4576107f3611a54565b5b602002602001019073ffffffffffffffffffffffffffffffffffffffff16908173ffffffffffffffffffffffffffffffffffffffff16815250507f00000000000000000000000000000000000000000000000000000000000000008160018151811061086357610862611a54565b5b602002602001019073ffffffffffffffffffffffffffffffffffffffff16908173ffffffffffffffffffffffffffffffffffffffff1681525050600061012c426108ad91906118b4565b90506000600160009054906101000a900473ffffffffffffffffffffffffffffffffffffffff1673ffffffffffffffffffffffffffffffffffffffff16637ff36ab534868630876040518663ffffffff1660e01b81526004016109139493929190611b41565b60006040518083038185885af1158015610931573d6000803e3d6000fd5b50505050506040513d6000823e3d601f19601f8201168201806040525081019061095b9190611c6a565b905060008160018151811061097357610972611a54565b5b6020026020010151146109bb576040517f08c379a00000000000000000000000000000000000000000000000000000000081526004016109b290611d10565b60405180910390fd5b806000815181106109cf576109ce611a54565b5b6020026020010151600760003373ffffffffffffffffffffffffffffffffffffffff1673ffffffffffffffffffffffffffffffffffffffff1681526020019081526020016000206000828254610a2591906118b4565b9250508190555050505050565b610a3a610e5d565b610a446000610f57565b565b600160009054906101000a900473ffffffffffffffffffffffffffffffffffffffff1681565b60035481565b60025481565b610a80610e5d565b600082604051602001610a9391906119fb565b604051602081830303815290604052805190602001209050816008600083815260200190815260200160002060006101000a81548173ffffffffffffffffffffffffffffffffffffffff021916908373ffffffffffffffffffffffffffffffffffffffff160217905550505050565b60008060009054906101000a900473ffffffffffffffffffffffffffffffffffffffff16905090565b600660008273ffffffffffffffffffffffffffffffffffffffff1673ffffffffffffffffffffffffffffffffffffffff1681526020019081526020016000206000905550565b6000610b7b610e5d565b600082604051602001610b8e91906119fb565b6040516020818303038152906040528051906020012090506008600082815260200190815260200160002060009054906101000a900473ffffffffffffffffffffffffffffffffffffffff16915050919050565b6000600660008373ffffffffffffffffffffffffffffffffffffffff1673ffffffffffffffffffffffffffffffffffffffff1681526020019081526020016000208190555050565b80600660003373ffffffffffffffffffffffffffffffffffffffff1673ffffffffffffffffffffffffffffffffffffffff168152602001908152602001600020541015610c7657600080fd5b80600660003373ffffffffffffffffffffffffffffffffffffffff1673ffffffffffffffffffffffffffffffffffffffff1681526020019081526020016000206000828254610cc59190611880565b92505081905550670de0b6b3a7640000600454670de0b6b3a7640000610ceb9190611880565b610cf59190611959565b81610d0091906118e8565b9050610d4d33827f000000000000000000000000000000000000000000000000000000000000000073ffffffffffffffffffffffffffffffffffffffff1661101b9092919063ffffffff16565b50565b610d58610e5d565b600073ffffffffffffffffffffffffffffffffffffffff168173ffffffffffffffffffffffffffffffffffffffff1603610dc7576040517f08c379a0000000000000000000000000000000000000000000000000000000008152600401610dbe90611da2565b60405180910390fd5b610dd081610f57565b50565b610ddb610e5d565b600082604051602001610dee91906119fb565b604051602081830303815290604052805190602001209050816008600083815260200190815260200160002060006101000a81548173ffffffffffffffffffffffffffffffffffffffff021916908373ffffffffffffffffffffffffffffffffffffffff160217905550505050565b610e656110a1565b73ffffffffffffffffffffffffffffffffffffffff16610e83610b02565b73ffffffffffffffffffffffffffffffffffffffff1614610ed9576040517f08c379a0000000000000000000000000000000000000000000000000000000008152600401610ed090611e0e565b60405180910390fd5b565b610ee3610e5d565b6000600554600960008473ffffffffffffffffffffffffffffffffffffffff1673ffffffffffffffffffffffffffffffffffffffff1681526020019081526020016000205442610f339190611880565b610f3d9190611959565b90506000811115610f5357610f5282826110a9565b5b5050565b60008060009054906101000a900473ffffffffffffffffffffffffffffffffffffffff169050816000806101000a81548173ffffffffffffffffffffffffffffffffffffffff021916908373ffffffffffffffffffffffffffffffffffffffff1602179055508173ffffffffffffffffffffffffffffffffffffffff168173ffffffffffffffffffffffffffffffffffffffff167f8be0079c531659141344cd1fd0a4f28419497f9722a3daafe3b4186f6b6457e060405160405180910390a35050565b61109c8363a9059cbb60e01b848460405160240161103a929190611e2e565b604051602081830303815290604052907bffffffffffffffffffffffffffffffffffffffffffffffffffffffff19166020820180517bffffffffffffffffffffffffffffffffffffffffffffffffffffffff8381831617835250505050611193565b505050565b600033905090565b6110b1610e5d565b60008190505b600081111561114a576001670de0b6b3a76400006002546110d89190611959565b6110e291906118b4565b600760008573ffffffffffffffffffffffffffffffffffffffff1673ffffffffffffffffffffffffffffffffffffffff168152602001908152602001600020600082825461113091906118e8565b92505081905550808061114290611e57565b9150506110b7565b5042600960008473ffffffffffffffffffffffffffffffffffffffff1673ffffffffffffffffffffffffffffffffffffffff168152602001908152602001600020819055505050565b60006111f5826040518060400160405280602081526020017f5361666545524332303a206c6f772d6c6576656c2063616c6c206661696c65648152508573ffffffffffffffffffffffffffffffffffffffff1661125a9092919063ffffffff16565b905060008151111561125557808060200190518101906112159190611eb8565b611254576040517f08c379a000000000000000000000000000000000000000000000000000000000815260040161124b90611f57565b60405180910390fd5b5b505050565b60606112698484600085611272565b90509392505050565b6060824710156112b7576040517f08c379a00000000000000000000000000000000000000000000000000000000081526004016112ae90611fe9565b60405180910390fd5b6000808673ffffffffffffffffffffffffffffffffffffffff1685876040516112e09190612050565b60006040518083038185875af1925050503d806000811461131d576040519150601f19603f3d011682016040523d82523d6000602084013e611322565b606091505b50915091506113338783838761133f565b92505050949350505050565b606083156113a157600083510361139957611359856113b4565b611398576040517f08c379a000000000000000000000000000000000000000000000000000000000815260040161138f906120b3565b60405180910390fd5b5b8290506113ac565b6113ab83836113d7565b5b949350505050565b6000808273ffffffffffffffffffffffffffffffffffffffff163b119050919050565b6000825111156113ea5781518083602001fd5b806040517f08c379a000000000000000000000000000000000000000000000000000000000815260040161141e919061210c565b60405180910390fd5b6000604051905090565b600080fd5b600080fd5b600080fd5b600080fd5b6000601f19601f8301169050919050565b7f4e487b7100000000000000000000000000000000000000000000000000000000600052604160045260246000fd5b61148e82611445565b810181811067ffffffffffffffff821117156114ad576114ac611456565b5b80604052505050565b60006114c0611427565b90506114cc8282611485565b919050565b600067ffffffffffffffff8211156114ec576114eb611456565b5b6114f582611445565b9050602081019050919050565b82818337600083830152505050565b600061152461151f846114d1565b6114b6565b9050828152602081018484840111156115405761153f611440565b5b61154b848285611502565b509392505050565b600082601f8301126115685761156761143b565b5b8135611578848260208601611511565b91505092915050565b600073ffffffffffffffffffffffffffffffffffffffff82169050919050565b60006115ac82611581565b9050919050565b6115bc816115a1565b81146115c757600080fd5b50565b6000813590506115d9816115b3565b92915050565b6000819050919050565b6115f2816115df565b81146115fd57600080fd5b50565b60008135905061160f816115e9565b92915050565b60008060006060848603121561162e5761162d611431565b5b600084013567ffffffffffffffff81111561164c5761164b611436565b5b61165886828701611553565b9350506020611669868287016115ca565b925050604061167a86828701611600565b9150509250925092565b60006020828403121561169a57611699611431565b5b600082013567ffffffffffffffff8111156116b8576116b7611436565b5b6116c484828501611553565b91505092915050565b6116d6816115df565b82525050565b60006020820190506116f160008301846116cd565b92915050565b60006020828403121561170d5761170c611431565b5b600061171b848285016115ca565b91505092915050565b60006020828403121561173a57611739611431565b5b600061174884828501611600565b91505092915050565b6000819050919050565b600061177661177161176c84611581565b611751565b611581565b9050919050565b60006117888261175b565b9050919050565b600061179a8261177d565b9050919050565b6117aa8161178f565b82525050565b60006020820190506117c560008301846117a1565b92915050565b600080604083850312156117e2576117e1611431565b5b600083013567ffffffffffffffff811115611800576117ff611436565b5b61180c85828601611553565b925050602061181d858286016115ca565b9150509250929050565b611830816115a1565b82525050565b600060208201905061184b6000830184611827565b92915050565b7f4e487b7100000000000000000000000000000000000000000000000000000000600052601160045260246000fd5b600061188b826115df565b9150611896836115df565b92508282039050818111156118ae576118ad611851565b5b92915050565b60006118bf826115df565b91506118ca836115df565b92508282019050808211156118e2576118e1611851565b5b92915050565b60006118f3826115df565b91506118fe836115df565b925082820261190c816115df565b9150828204841483151761192357611922611851565b5b5092915050565b7f4e487b7100000000000000000000000000000000000000000000000000000000600052601260045260246000fd5b6000611964826115df565b915061196f836115df565b92508261197f5761197e61192a565b5b828204905092915050565b600081519050919050565b600081905092915050565b60005b838110156119be5780820151818401526020810190506119a3565b60008484015250505050565b60006119d58261198a565b6119df8185611995565b93506119ef8185602086016119a0565b80840191505092915050565b6000611a0782846119ca565b915081905092915050565b600081519050611a21816115b3565b92915050565b600060208284031215611a3d57611a3c611431565b5b6000611a4b84828501611a12565b91505092915050565b7f4e487b7100000000000000000000000000000000000000000000000000000000600052603260045260246000fd5b600081519050919050565b600082825260208201905092915050565b6000819050602082019050919050565b611ab8816115a1565b82525050565b6000611aca8383611aaf565b60208301905092915050565b6000602082019050919050565b6000611aee82611a83565b611af88185611a8e565b9350611b0383611a9f565b8060005b83811015611b34578151611b1b8882611abe565b9750611b2683611ad6565b925050600181019050611b07565b5085935050505092915050565b6000608082019050611b5660008301876116cd565b8181036020830152611b688186611ae3565b9050611b776040830185611827565b611b8460608301846116cd565b95945050505050565b600067ffffffffffffffff821115611ba857611ba7611456565b5b602082029050602081019050919050565b600080fd5b600081519050611bcd816115e9565b92915050565b6000611be6611be184611b8d565b6114b6565b90508083825260208201905060208402830185811115611c0957611c08611bb9565b5b835b81811015611c325780611c1e8882611bbe565b845260208401935050602081019050611c0b565b5050509392505050565b600082601f830112611c5157611c5061143b565b5b8151611c61848260208601611bd3565b91505092915050565b600060208284031215611c8057611c7f611431565b5b600082015167ffffffffffffffff811115611c9e57611c9d611436565b5b611caa84828501611c3c565b91505092915050565b600082825260208201905092915050565b7f746f6f206d756368204554480000000000000000000000000000000000000000600082015250565b6000611cfa600c83611cb3565b9150611d0582611cc4565b602082019050919050565b60006020820190508181036000830152611d2981611ced565b9050919050565b7f4f776e61626c653a206e6577206f776e657220697320746865207a65726f206160008201527f6464726573730000000000000000000000000000000000000000000000000000602082015250565b6000611d8c602683611cb3565b9150611d9782611d30565b604082019050919050565b60006020820190508181036000830152611dbb81611d7f565b9050919050565b7f4f776e61626c653a2063616c6c6572206973206e6f7420746865206f776e6572600082015250565b6000611df8602083611cb3565b9150611e0382611dc2565b602082019050919050565b60006020820190508181036000830152611e2781611deb565b9050919050565b6000604082019050611e436000830185611827565b611e5060208301846116cd565b9392505050565b6000611e62826115df565b915060008203611e7557611e74611851565b5b600182039050919050565b60008115159050919050565b611e9581611e80565b8114611ea057600080fd5b50565b600081519050611eb281611e8c565b92915050565b600060208284031215611ece57611ecd611431565b5b6000611edc84828501611ea3565b91505092915050565b7f5361666545524332303a204552433230206f7065726174696f6e20646964206e60008201527f6f74207375636365656400000000000000000000000000000000000000000000602082015250565b6000611f41602a83611cb3565b9150611f4c82611ee5565b604082019050919050565b60006020820190508181036000830152611f7081611f34565b9050919050565b7f416464726573733a20696e73756666696369656e742062616c616e636520666f60008201527f722063616c6c0000000000000000000000000000000000000000000000000000602082015250565b6000611fd3602683611cb3565b9150611fde82611f77565b604082019050919050565b6000602082019050818103600083015261200281611fc6565b9050919050565b600081519050919050565b600081905092915050565b600061202a82612009565b6120348185612014565b93506120448185602086016119a0565b80840191505092915050565b600061205c828461201f565b915081905092915050565b7f416464726573733a2063616c6c20746f206e6f6e2d636f6e7472616374000000600082015250565b600061209d601d83611cb3565b91506120a882612067565b602082019050919050565b600060208201905081810360008301526120cc81612090565b9050919050565b60006120de8261198a565b6120e88185611cb3565b93506120f88185602086016119a0565b61210181611445565b840191505092915050565b6000602082019050818103600083015261212681846120d3565b90509291505056fea26469706673582212201526b6bc6536b6cf9c5e959118fa8c1778f30e4dfd7044d23506388dac1e2bf964736f6c63430008120033",
  "linkReferences": {},
  "deployedLinkReferences": {}
}